{"contracts/propertyRecord.sol":{"PropertyRecords":{"abi":[{"inputs":[],"stateMutability":"nonpayable","type":"constructor"},{"anonymous":false,"inputs":[{"indexed":true,"internalType":"uint256","name":"index","type":"uint256"},{"indexed":false,"internalType":"string","name":"accountNo","type":"string"},{"indexed":false,"internalType":"string","name":"ownerName","type":"string"}],"name":"PropertyAdded","type":"event"},{"inputs":[{"components":[{"internalType":"string","name":"accountNo","type":"string"},{"internalType":"string","name":"ownerName","type":"string"},{"internalType":"string","name":"images","type":"string"},{"internalType":"string","name":"propertyAddress","type":"string"},{"internalType":"string","name":"city","type":"string"}],"internalType":"struct PropertyRecords.PropertyBasicInfo","name":"_basicInfo","type":"tuple"},{"components":[{"internalType":"string","name":"grantor","type":"string"},{"internalType":"string","name":"grantee","type":"string"},{"internalType":"uint256","name":"saleDate","type":"uint256"},{"internalType":"uint256","name":"salePrice","type":"uint256"},{"internalType":"string","name":"saleType","type":"string"}],"internalType":"struct PropertyRecords.PropertySaleInfo","name":"_saleInfo","type":"tuple"},{"components":[{"internalType":"uint256","name":"acres","type":"uint256"},{"internalType":"uint256","name":"assessedValue","type":"uint256"},{"internalType":"uint256","name":"heatedSqFt","type":"uint256"},{"internalType":"string","name":"subdivision","type":"string"},{"internalType":"string","name":"secTwpRng","type":"string"},{"internalType":"string","name":"legalDescr","type":"string"},{"internalType":"uint256","name":"landSqFt","type":"uint256"}],"internalType":"struct PropertyRecords.PropertyDetails","name":"_details","type":"tuple"}],"name":"addProperty","outputs":[],"stateMutability":"nonpayable","type":"function"},{"inputs":[{"internalType":"uint256","name":"index","type":"uint256"}],"name":"getPropertyBasicInfo","outputs":[{"components":[{"internalType":"string","name":"accountNo","type":"string"},{"internalType":"string","name":"ownerName","type":"string"},{"internalType":"string","name":"images","type":"string"},{"internalType":"string","name":"propertyAddress","type":"string"},{"internalType":"string","name":"city","type":"string"}],"internalType":"struct PropertyRecords.PropertyBasicInfo","name":"","type":"tuple"}],"stateMutability":"view","type":"function"},{"inputs":[],"name":"getPropertyCount","outputs":[{"internalType":"uint256","name":"","type":"uint256"}],"stateMutability":"view","type":"function"},{"inputs":[{"internalType":"uint256","name":"index","type":"uint256"}],"name":"getPropertyDetails","outputs":[{"components":[{"internalType":"uint256","name":"acres","type":"uint256"},{"internalType":"uint256","name":"assessedValue","type":"uint256"},{"internalType":"uint256","name":"heatedSqFt","type":"uint256"},{"internalType":"string","name":"subdivision","type":"string"},{"internalType":"string","name":"secTwpRng","type":"string"},{"internalType":"string","name":"legalDescr","type":"string"},{"internalType":"uint256","name":"landSqFt","type":"uint256"}],"internalType":"struct PropertyRecords.PropertyDetails","name":"","type":"tuple"}],"stateMutability":"view","type":"function"},{"inputs":[{"internalType":"uint256","name":"index","type":"uint256"}],"name":"getPropertySaleInfo","outputs":[{"components":[{"internalType":"string","name":"grantor","type":"string"},{"internalType":"string","name":"grantee","type":"string"},{"internalType":"uint256","name":"saleDate","type":"uint256"},{"internalType":"uint256","name":"salePrice","type":"uint256"},{"internalType":"string","name":"saleType","type":"string"}],"internalType":"struct PropertyRecords.PropertySaleInfo","name":"","type":"tuple"}],"stateMutability":"view","type":"function"},{"inputs":[],"name":"owner","outputs":[{"internalType":"address","name":"","type":"address"}],"stateMutability":"view","type":"function"},{"inputs":[{"internalType":"uint256","name":"","type":"uint256"}],"name":"properties","outputs":[{"components":[{"internalType":"string","name":"accountNo","type":"string"},{"internalType":"string","name":"ownerName","type":"string"},{"internalType":"string","name":"images","type":"string"},{"internalType":"string","name":"propertyAddress","type":"string"},{"internalType":"string","name":"city","type":"string"}],"internalType":"struct PropertyRecords.PropertyBasicInfo","name":"basicInfo","type":"tuple"},{"components":[{"internalType":"string","name":"grantor","type":"string"},{"internalType":"string","name":"grantee","type":"string"},{"internalType":"uint256","name":"saleDate","type":"uint256"},{"internalType":"uint256","name":"salePrice","type":"uint256"},{"internalType":"string","name":"saleType","type":"string"}],"internalType":"struct PropertyRecords.PropertySaleInfo","name":"saleInfo","type":"tuple"},{"components":[{"internalType":"uint256","name":"acres","type":"uint256"},{"internalType":"uint256","name":"assessedValue","type":"uint256"},{"internalType":"uint256","name":"heatedSqFt","type":"uint256"},{"internalType":"string","name":"subdivision","type":"string"},{"internalType":"string","name":"secTwpRng","type":"string"},{"internalType":"string","name":"legalDescr","type":"string"},{"internalType":"uint256","name":"landSqFt","type":"uint256"}],"internalType":"struct PropertyRecords.PropertyDetails","name":"details","type":"tuple"}],"stateMutability":"view","type":"function"},{"inputs":[{"internalType":"uint256","name":"index","type":"uint256"},{"components":[{"internalType":"string","name":"accountNo","type":"string"},{"internalType":"string","name":"ownerName","type":"string"},{"internalType":"string","name":"images","type":"string"},{"internalType":"string","name":"propertyAddress","type":"string"},{"internalType":"string","name":"city","type":"string"}],"internalType":"struct PropertyRecords.PropertyBasicInfo","name":"_basicInfo","type":"tuple"}],"name":"updatePropertyBasicInfo","outputs":[],"stateMutability":"nonpayable","type":"function"},{"inputs":[{"internalType":"uint256","name":"index","type":"uint256"},{"components":[{"internalType":"uint256","name":"acres","type":"uint256"},{"internalType":"uint256","name":"assessedValue","type":"uint256"},{"internalType":"uint256","name":"heatedSqFt","type":"uint256"},{"internalType":"string","name":"subdivision","type":"string"},{"internalType":"string","name":"secTwpRng","type":"string"},{"internalType":"string","name":"legalDescr","type":"string"},{"internalType":"uint256","name":"landSqFt","type":"uint256"}],"internalType":"struct PropertyRecords.PropertyDetails","name":"_details","type":"tuple"}],"name":"updatePropertyDetails","outputs":[],"stateMutability":"nonpayable","type":"function"},{"inputs":[{"internalType":"uint256","name":"index","type":"uint256"},{"components":[{"internalType":"string","name":"grantor","type":"string"},{"internalType":"string","name":"grantee","type":"string"},{"internalType":"uint256","name":"saleDate","type":"uint256"},{"internalType":"uint256","name":"salePrice","type":"uint256"},{"internalType":"string","name":"saleType","type":"string"}],"internalType":"struct PropertyRecords.PropertySaleInfo","name":"_saleInfo","type":"tuple"}],"name":"updatePropertySaleInfo","outputs":[],"stateMutability":"nonpayable","type":"function"}],"evm":{"bytecode":{"linkReferences":{},"object":"608060405234801561001057600080fd5b5033600160006101000a81548173ffffffffffffffffffffffffffffffffffffffff021916908373ffffffffffffffffffffffffffffffffffffffff1602179055506127b8806100616000396000f3fe608060405234801561001057600080fd5b506004361061009e5760003560e01c8063b013af8511610066578063b013af851461016f578063c06633fc1461018b578063c63c5a25146101a7578063eed41e0c146101c3578063f7b10808146101df5761009e565b8063126dbe43146100a35780632549b435146100d3578063327fe489146101035780637326b901146101335780638da5cb5b14610151575b600080fd5b6100bd60048036038101906100b891906118d5565b610211565b6040516100ca9190611a4b565b60405180910390f35b6100ed60048036038101906100e891906118d5565b610475565b6040516100fa9190611aff565b60405180910390f35b61011d600480360381019061011891906118d5565b6107d5565b60405161012a9190611ba5565b60405180910390f35b61013b610a25565b6040516101489190611bd6565b60405180910390f35b610159610a31565b6040516101669190611c32565b60405180910390f35b6101896004803603810190610184919061208c565b610a57565b005b6101a560048036038101906101a09190612133565b610cdc565b005b6101c160048036038101906101bc919061218f565b610e36565b005b6101dd60048036038101906101d891906121eb565b610fa8565b005b6101f960048036038101906101f491906118d5565b611116565b60405161020893929190612247565b60405180910390f35b6102196117f0565b6000805490508210610260576040517f08c379a0000000000000000000000000000000000000000000000000000000008152600401610257906122f0565b60405180910390fd5b6000828154811061027457610273612310565b5b9060005260206000209060110201600a016040518060e00160405290816000820154815260200160018201548152602001600282015481526020016003820180546102be9061236e565b80601f01602080910402602001604051908101604052809291908181526020018280546102ea9061236e565b80156103375780601f1061030c57610100808354040283529160200191610337565b820191906000526020600020905b81548152906001019060200180831161031a57829003601f168201915b505050505081526020016004820180546103509061236e565b80601f016020809104026020016040519081016040528092919081815260200182805461037c9061236e565b80156103c95780601f1061039e576101008083540402835291602001916103c9565b820191906000526020600020905b8154815290600101906020018083116103ac57829003601f168201915b505050505081526020016005820180546103e29061236e565b80601f016020809104026020016040519081016040528092919081815260200182805461040e9061236e565b801561045b5780601f106104305761010080835404028352916020019161045b565b820191906000526020600020905b81548152906001019060200180831161043e57829003601f168201915b505050505081526020016006820154815250509050919050565b61047d61182d565b60008054905082106104c4576040517f08c379a00000000000000000000000000000000000000000000000000000000081526004016104bb906122f0565b60405180910390fd5b600082815481106104d8576104d7612310565b5b90600052602060002090601102016000016040518060a00160405290816000820180546105049061236e565b80601f01602080910402602001604051908101604052809291908181526020018280546105309061236e565b801561057d5780601f106105525761010080835404028352916020019161057d565b820191906000526020600020905b81548152906001019060200180831161056057829003601f168201915b505050505081526020016001820180546105969061236e565b80601f01602080910402602001604051908101604052809291908181526020018280546105c29061236e565b801561060f5780601f106105e45761010080835404028352916020019161060f565b820191906000526020600020905b8154815290600101906020018083116105f257829003601f168201915b505050505081526020016002820180546106289061236e565b80601f01602080910402602001604051908101604052809291908181526020018280546106549061236e565b80156106a15780601f10610676576101008083540402835291602001916106a1565b820191906000526020600020905b81548152906001019060200180831161068457829003601f168201915b505050505081526020016003820180546106ba9061236e565b80601f01602080910402602001604051908101604052809291908181526020018280546106e69061236e565b80156107335780601f1061070857610100808354040283529160200191610733565b820191906000526020600020905b81548152906001019060200180831161071657829003601f168201915b5050505050815260200160048201805461074c9061236e565b80601f01602080910402602001604051908101604052809291908181526020018280546107789061236e565b80156107c55780601f1061079a576101008083540402835291602001916107c5565b820191906000526020600020905b8154815290600101906020018083116107a857829003601f168201915b5050505050815250509050919050565b6107dd61185c565b6000805490508210610824576040517f08c379a000000000000000000000000000000000000000000000000000000000815260040161081b906122f0565b60405180910390fd5b6000828154811061083857610837612310565b5b90600052602060002090601102016005016040518060a00160405290816000820180546108649061236e565b80601f01602080910402602001604051908101604052809291908181526020018280546108909061236e565b80156108dd5780601f106108b2576101008083540402835291602001916108dd565b820191906000526020600020905b8154815290600101906020018083116108c057829003601f168201915b505050505081526020016001820180546108f69061236e565b80601f01602080910402602001604051908101604052809291908181526020018280546109229061236e565b801561096f5780601f106109445761010080835404028352916020019161096f565b820191906000526020600020905b81548152906001019060200180831161095257829003601f168201915b50505050508152602001600282015481526020016003820154815260200160048201805461099c9061236e565b80601f01602080910402602001604051908101604052809291908181526020018280546109c89061236e565b8015610a155780601f106109ea57610100808354040283529160200191610a15565b820191906000526020600020905b8154815290600101906020018083116109f857829003601f168201915b5050505050815250509050919050565b60008080549050905090565b600160009054906101000a900473ffffffffffffffffffffffffffffffffffffffff1681565b600160009054906101000a900473ffffffffffffffffffffffffffffffffffffffff1673ffffffffffffffffffffffffffffffffffffffff163373ffffffffffffffffffffffffffffffffffffffff1614610ae7576040517f08c379a0000000000000000000000000000000000000000000000000000000008152600401610ade90612411565b60405180910390fd5b6000604051806060016040528085815260200184815260200183815250905060008190806001815401808255809150506001900390600052602060002090601102016000909190919091506000820151816000016000820151816000019081610b5091906125dd565b506020820151816001019081610b6691906125dd565b506040820151816002019081610b7c91906125dd565b506060820151816003019081610b9291906125dd565b506080820151816004019081610ba891906125dd565b5050506020820151816005016000820151816000019081610bc991906125dd565b506020820151816001019081610bdf91906125dd565b5060408201518160020155606082015181600301556080820151816004019081610c0991906125dd565b505050604082015181600a016000820151816000015560208201518160010155604082015181600201556060820151816003019081610c4891906125dd565b506080820151816004019081610c5e91906125dd565b5060a0820151816005019081610c7491906125dd565b5060c08201518160060155505050506001600080549050610c9591906126de565b7f3da4c9bfb35ec26c6d648c86e9eb4077c245397191cc803a547fa580e21ff2bb85600001518660200151604051610cce92919061274b565b60405180910390a250505050565b600160009054906101000a900473ffffffffffffffffffffffffffffffffffffffff1673ffffffffffffffffffffffffffffffffffffffff163373ffffffffffffffffffffffffffffffffffffffff1614610d6c576040517f08c379a0000000000000000000000000000000000000000000000000000000008152600401610d6390612411565b60405180910390fd5b6000805490508210610db3576040517f08c379a0000000000000000000000000000000000000000000000000000000008152600401610daa906122f0565b60405180910390fd5b8060008381548110610dc857610dc7612310565b5b90600052602060002090601102016005016000820151816000019081610dee91906125dd565b506020820151816001019081610e0491906125dd565b5060408201518160020155606082015181600301556080820151816004019081610e2e91906125dd565b509050505050565b600160009054906101000a900473ffffffffffffffffffffffffffffffffffffffff1673ffffffffffffffffffffffffffffffffffffffff163373ffffffffffffffffffffffffffffffffffffffff1614610ec6576040517f08c379a0000000000000000000000000000000000000000000000000000000008152600401610ebd90612411565b60405180910390fd5b6000805490508210610f0d576040517f08c379a0000000000000000000000000000000000000000000000000000000008152600401610f04906122f0565b60405180910390fd5b8060008381548110610f2257610f21612310565b5b90600052602060002090601102016000016000820151816000019081610f4891906125dd565b506020820151816001019081610f5e91906125dd565b506040820151816002019081610f7491906125dd565b506060820151816003019081610f8a91906125dd565b506080820151816004019081610fa091906125dd565b509050505050565b600160009054906101000a900473ffffffffffffffffffffffffffffffffffffffff1673ffffffffffffffffffffffffffffffffffffffff163373ffffffffffffffffffffffffffffffffffffffff1614611038576040517f08c379a000000000000000000000000000000000000000000000000000000000815260040161102f90612411565b60405180910390fd5b600080549050821061107f576040517f08c379a0000000000000000000000000000000000000000000000000000000008152600401611076906122f0565b60405180910390fd5b806000838154811061109457611093612310565b5b9060005260206000209060110201600a0160008201518160000155602082015181600101556040820151816002015560608201518160030190816110d891906125dd565b5060808201518160040190816110ee91906125dd565b5060a082015181600501908161110491906125dd565b5060c082015181600601559050505050565b6000818154811061112657600080fd5b9060005260206000209060110201600091509050806000016040518060a00160405290816000820180546111599061236e565b80601f01602080910402602001604051908101604052809291908181526020018280546111859061236e565b80156111d25780601f106111a7576101008083540402835291602001916111d2565b820191906000526020600020905b8154815290600101906020018083116111b557829003601f168201915b505050505081526020016001820180546111eb9061236e565b80601f01602080910402602001604051908101604052809291908181526020018280546112179061236e565b80156112645780601f1061123957610100808354040283529160200191611264565b820191906000526020600020905b81548152906001019060200180831161124757829003601f168201915b5050505050815260200160028201805461127d9061236e565b80601f01602080910402602001604051908101604052809291908181526020018280546112a99061236e565b80156112f65780601f106112cb576101008083540402835291602001916112f6565b820191906000526020600020905b8154815290600101906020018083116112d957829003601f168201915b5050505050815260200160038201805461130f9061236e565b80601f016020809104026020016040519081016040528092919081815260200182805461133b9061236e565b80156113885780601f1061135d57610100808354040283529160200191611388565b820191906000526020600020905b81548152906001019060200180831161136b57829003601f168201915b505050505081526020016004820180546113a19061236e565b80601f01602080910402602001604051908101604052809291908181526020018280546113cd9061236e565b801561141a5780601f106113ef5761010080835404028352916020019161141a565b820191906000526020600020905b8154815290600101906020018083116113fd57829003601f168201915b50505050508152505090806005016040518060a00160405290816000820180546114439061236e565b80601f016020809104026020016040519081016040528092919081815260200182805461146f9061236e565b80156114bc5780601f10611491576101008083540402835291602001916114bc565b820191906000526020600020905b81548152906001019060200180831161149f57829003601f168201915b505050505081526020016001820180546114d59061236e565b80601f01602080910402602001604051908101604052809291908181526020018280546115019061236e565b801561154e5780601f106115235761010080835404028352916020019161154e565b820191906000526020600020905b81548152906001019060200180831161153157829003601f168201915b50505050508152602001600282015481526020016003820154815260200160048201805461157b9061236e565b80601f01602080910402602001604051908101604052809291908181526020018280546115a79061236e565b80156115f45780601f106115c9576101008083540402835291602001916115f4565b820191906000526020600020905b8154815290600101906020018083116115d757829003601f168201915b5050505050815250509080600a016040518060e001604052908160008201548152602001600182015481526020016002820154815260200160038201805461163b9061236e565b80601f01602080910402602001604051908101604052809291908181526020018280546116679061236e565b80156116b45780601f10611689576101008083540402835291602001916116b4565b820191906000526020600020905b81548152906001019060200180831161169757829003601f168201915b505050505081526020016004820180546116cd9061236e565b80601f01602080910402602001604051908101604052809291908181526020018280546116f99061236e565b80156117465780601f1061171b57610100808354040283529160200191611746565b820191906000526020600020905b81548152906001019060200180831161172957829003601f168201915b5050505050815260200160058201805461175f9061236e565b80601f016020809104026020016040519081016040528092919081815260200182805461178b9061236e565b80156117d85780601f106117ad576101008083540402835291602001916117d8565b820191906000526020600020905b8154815290600101906020018083116117bb57829003601f168201915b50505050508152602001600682015481525050905083565b6040518060e00160405280600081526020016000815260200160008152602001606081526020016060815260200160608152602001600081525090565b6040518060a0016040528060608152602001606081526020016060815260200160608152602001606081525090565b6040518060a0016040528060608152602001606081526020016000815260200160008152602001606081525090565b6000604051905090565b600080fd5b600080fd5b6000819050919050565b6118b28161189f565b81146118bd57600080fd5b50565b6000813590506118cf816118a9565b92915050565b6000602082840312156118eb576118ea611895565b5b60006118f9848285016118c0565b91505092915050565b61190b8161189f565b82525050565b600081519050919050565b600082825260208201905092915050565b60005b8381101561194b578082015181840152602081019050611930565b60008484015250505050565b6000601f19601f8301169050919050565b600061197382611911565b61197d818561191c565b935061198d81856020860161192d565b61199681611957565b840191505092915050565b600060e0830160008301516119b96000860182611902565b5060208301516119cc6020860182611902565b5060408301516119df6040860182611902565b50606083015184820360608601526119f78282611968565b91505060808301518482036080860152611a118282611968565b91505060a083015184820360a0860152611a2b8282611968565b91505060c0830151611a4060c0860182611902565b508091505092915050565b60006020820190508181036000830152611a6581846119a1565b905092915050565b600060a0830160008301518482036000860152611a8a8282611968565b91505060208301518482036020860152611aa48282611968565b91505060408301518482036040860152611abe8282611968565b91505060608301518482036060860152611ad88282611968565b91505060808301518482036080860152611af28282611968565b9150508091505092915050565b60006020820190508181036000830152611b198184611a6d565b905092915050565b600060a0830160008301518482036000860152611b3e8282611968565b91505060208301518482036020860152611b588282611968565b9150506040830151611b6d6040860182611902565b506060830151611b806060860182611902565b5060808301518482036080860152611b988282611968565b9150508091505092915050565b60006020820190508181036000830152611bbf8184611b21565b905092915050565b611bd08161189f565b82525050565b6000602082019050611beb6000830184611bc7565b92915050565b600073ffffffffffffffffffffffffffffffffffffffff82169050919050565b6000611c1c82611bf1565b9050919050565b611c2c81611c11565b82525050565b6000602082019050611c476000830184611c23565b92915050565b600080fd5b7f4e487b7100000000000000000000000000000000000000000000000000000000600052604160045260246000fd5b611c8a82611957565b810181811067ffffffffffffffff82111715611ca957611ca8611c52565b5b80604052505050565b6000611cbc61188b565b9050611cc88282611c81565b919050565b600080fd5b600080fd5b600080fd5b600067ffffffffffffffff821115611cf757611cf6611c52565b5b611d0082611957565b9050602081019050919050565b82818337600083830152505050565b6000611d2f611d2a84611cdc565b611cb2565b905082815260208101848484011115611d4b57611d4a611cd7565b5b611d56848285611d0d565b509392505050565b600082601f830112611d7357611d72611cd2565b5b8135611d83848260208601611d1c565b91505092915050565b600060a08284031215611da257611da1611c4d565b5b611dac60a0611cb2565b9050600082013567ffffffffffffffff811115611dcc57611dcb611ccd565b5b611dd884828501611d5e565b600083015250602082013567ffffffffffffffff811115611dfc57611dfb611ccd565b5b611e0884828501611d5e565b602083015250604082013567ffffffffffffffff811115611e2c57611e2b611ccd565b5b611e3884828501611d5e565b604083015250606082013567ffffffffffffffff811115611e5c57611e5b611ccd565b5b611e6884828501611d5e565b606083015250608082013567ffffffffffffffff811115611e8c57611e8b611ccd565b5b611e9884828501611d5e565b60808301525092915050565b600060a08284031215611eba57611eb9611c4d565b5b611ec460a0611cb2565b9050600082013567ffffffffffffffff811115611ee457611ee3611ccd565b5b611ef084828501611d5e565b600083015250602082013567ffffffffffffffff811115611f1457611f13611ccd565b5b611f2084828501611d5e565b6020830152506040611f34848285016118c0565b6040830152506060611f48848285016118c0565b606083015250608082013567ffffffffffffffff811115611f6c57611f6b611ccd565b5b611f7884828501611d5e565b60808301525092915050565b600060e08284031215611f9a57611f99611c4d565b5b611fa460e0611cb2565b90506000611fb4848285016118c0565b6000830152506020611fc8848285016118c0565b6020830152506040611fdc848285016118c0565b604083015250606082013567ffffffffffffffff81111561200057611fff611ccd565b5b61200c84828501611d5e565b606083015250608082013567ffffffffffffffff8111156120305761202f611ccd565b5b61203c84828501611d5e565b60808301525060a082013567ffffffffffffffff8111156120605761205f611ccd565b5b61206c84828501611d5e565b60a08301525060c0612080848285016118c0565b60c08301525092915050565b6000806000606084860312156120a5576120a4611895565b5b600084013567ffffffffffffffff8111156120c3576120c261189a565b5b6120cf86828701611d8c565b935050602084013567ffffffffffffffff8111156120f0576120ef61189a565b5b6120fc86828701611ea4565b925050604084013567ffffffffffffffff81111561211d5761211c61189a565b5b61212986828701611f84565b9150509250925092565b6000806040838503121561214a57612149611895565b5b6000612158858286016118c0565b925050602083013567ffffffffffffffff8111156121795761217861189a565b5b61218585828601611ea4565b9150509250929050565b600080604083850312156121a6576121a5611895565b5b60006121b4858286016118c0565b925050602083013567ffffffffffffffff8111156121d5576121d461189a565b5b6121e185828601611d8c565b9150509250929050565b6000806040838503121561220257612201611895565b5b6000612210858286016118c0565b925050602083013567ffffffffffffffff8111156122315761223061189a565b5b61223d85828601611f84565b9150509250929050565b600060608201905081810360008301526122618186611a6d565b905081810360208301526122758185611b21565b9050818103604083015261228981846119a1565b9050949350505050565b600082825260208201905092915050565b7f50726f706572747920646f6573206e6f74206578697374000000000000000000600082015250565b60006122da601783612293565b91506122e5826122a4565b602082019050919050565b60006020820190508181036000830152612309816122cd565b9050919050565b7f4e487b7100000000000000000000000000000000000000000000000000000000600052603260045260246000fd5b7f4e487b7100000000000000000000000000000000000000000000000000000000600052602260045260246000fd5b6000600282049050600182168061238657607f821691505b6020821081036123995761239861233f565b5b50919050565b7f4f6e6c792074686520636f6e7472616374206f776e65722063616e2063616c6c60008201527f20746869732066756e6374696f6e000000000000000000000000000000000000602082015250565b60006123fb602e83612293565b91506124068261239f565b604082019050919050565b6000602082019050818103600083015261242a816123ee565b9050919050565b60008190508160005260206000209050919050565b60006020601f8301049050919050565b600082821b905092915050565b6000600883026124937fffffffffffffffffffffffffffffffffffffffffffffffffffffffffffffffff82612456565b61249d8683612456565b95508019841693508086168417925050509392505050565b6000819050919050565b60006124da6124d56124d08461189f565b6124b5565b61189f565b9050919050565b6000819050919050565b6124f4836124bf565b612508612500826124e1565b848454612463565b825550505050565b600090565b61251d612510565b6125288184846124eb565b505050565b5b8181101561254c57612541600082612515565b60018101905061252e565b5050565b601f8211156125915761256281612431565b61256b84612446565b8101602085101561257a578190505b61258e61258685612446565b83018261252d565b50505b505050565b600082821c905092915050565b60006125b460001984600802612596565b1980831691505092915050565b60006125cd83836125a3565b9150826002028217905092915050565b6125e682611911565b67ffffffffffffffff8111156125ff576125fe611c52565b5b612609825461236e565b612614828285612550565b600060209050601f8311600181146126475760008415612635578287015190505b61263f85826125c1565b8655506126a7565b601f19841661265586612431565b60005b8281101561267d57848901518255600182019150602085019450602081019050612658565b8683101561269a5784890151612696601f8916826125a3565b8355505b6001600288020188555050505b505050505050565b7f4e487b7100000000000000000000000000000000000000000000000000000000600052601160045260246000fd5b60006126e98261189f565b91506126f48361189f565b925082820390508181111561270c5761270b6126af565b5b92915050565b600061271d82611911565b6127278185612293565b935061273781856020860161192d565b61274081611957565b840191505092915050565b600060408201905081810360008301526127658185612712565b905081810360208301526127798184612712565b9050939250505056fea264697066735822122045ef9f296ea4a9a1e97ea7ac601fa4cb25fdfd1a7813499a45ee16f6d96092f464736f6c63430008140033","opcodes":"PUSH1 0x80 PUSH1 0x40 MSTORE CALLVALUE DUP1 ISZERO PUSH2 0x10 JUMPI PUSH1 0x0 DUP1 REVERT JUMPDEST POP CALLER PUSH1 0x1 PUSH1 0x0 PUSH2 0x100 EXP DUP2 SLOAD DUP2 PUSH20 0xFFFFFFFFFFFFFFFFFFFFFFFFFFFFFFFFFFFFFFFF MUL NOT AND SWAP1 DUP4 PUSH20 0xFFFFFFFFFFFFFFFFFFFFFFFFFFFFFFFFFFFFFFFF AND MUL OR SWAP1 SSTORE POP PUSH2 0x27B8 DUP1 PUSH2 0x61 PUSH1 0x0 CODECOPY PUSH1 0x0 RETURN INVALID PUSH1 0x80 PUSH1 0x40 MSTORE CALLVALUE DUP1 ISZERO PUSH2 0x10 JUMPI PUSH1 0x0 DUP1 REVERT JUMPDEST POP PUSH1 0x4 CALLDATASIZE LT PUSH2 0x9E JUMPI PUSH1 0x0 CALLDATALOAD PUSH1 0xE0 SHR DUP1 PUSH4 0xB013AF85 GT PUSH2 0x66 JUMPI DUP1 PUSH4 0xB013AF85 EQ PUSH2 0x16F JUMPI DUP1 PUSH4 0xC06633FC EQ PUSH2 0x18B JUMPI DUP1 PUSH4 0xC63C5A25 EQ PUSH2 0x1A7 JUMPI DUP1 PUSH4 0xEED41E0C EQ PUSH2 0x1C3 JUMPI DUP1 PUSH4 0xF7B10808 EQ PUSH2 0x1DF JUMPI PUSH2 0x9E JUMP JUMPDEST DUP1 PUSH4 0x126DBE43 EQ PUSH2 0xA3 JUMPI DUP1 PUSH4 0x2549B435 EQ PUSH2 0xD3 JUMPI DUP1 PUSH4 0x327FE489 EQ PUSH2 0x103 JUMPI DUP1 PUSH4 0x7326B901 EQ PUSH2 0x133 JUMPI DUP1 PUSH4 0x8DA5CB5B EQ PUSH2 0x151 JUMPI JUMPDEST PUSH1 0x0 DUP1 REVERT JUMPDEST PUSH2 0xBD PUSH1 0x4 DUP1 CALLDATASIZE SUB DUP2 ADD SWAP1 PUSH2 0xB8 SWAP2 SWAP1 PUSH2 0x18D5 JUMP JUMPDEST PUSH2 0x211 JUMP JUMPDEST PUSH1 0x40 MLOAD PUSH2 0xCA SWAP2 SWAP1 PUSH2 0x1A4B JUMP JUMPDEST PUSH1 0x40 MLOAD DUP1 SWAP2 SUB SWAP1 RETURN JUMPDEST PUSH2 0xED PUSH1 0x4 DUP1 CALLDATASIZE SUB DUP2 ADD SWAP1 PUSH2 0xE8 SWAP2 SWAP1 PUSH2 0x18D5 JUMP JUMPDEST PUSH2 0x475 JUMP JUMPDEST PUSH1 0x40 MLOAD PUSH2 0xFA SWAP2 SWAP1 PUSH2 0x1AFF JUMP JUMPDEST PUSH1 0x40 MLOAD DUP1 SWAP2 SUB SWAP1 RETURN JUMPDEST PUSH2 0x11D PUSH1 0x4 DUP1 CALLDATASIZE SUB DUP2 ADD SWAP1 PUSH2 0x118 SWAP2 SWAP1 PUSH2 0x18D5 JUMP JUMPDEST PUSH2 0x7D5 JUMP JUMPDEST PUSH1 0x40 MLOAD PUSH2 0x12A SWAP2 SWAP1 PUSH2 0x1BA5 JUMP JUMPDEST PUSH1 0x40 MLOAD DUP1 SWAP2 SUB SWAP1 RETURN JUMPDEST PUSH2 0x13B PUSH2 0xA25 JUMP JUMPDEST PUSH1 0x40 MLOAD PUSH2 0x148 SWAP2 SWAP1 PUSH2 0x1BD6 JUMP JUMPDEST PUSH1 0x40 MLOAD DUP1 SWAP2 SUB SWAP1 RETURN JUMPDEST PUSH2 0x159 PUSH2 0xA31 JUMP JUMPDEST PUSH1 0x40 MLOAD PUSH2 0x166 SWAP2 SWAP1 PUSH2 0x1C32 JUMP JUMPDEST PUSH1 0x40 MLOAD DUP1 SWAP2 SUB SWAP1 RETURN JUMPDEST PUSH2 0x189 PUSH1 0x4 DUP1 CALLDATASIZE SUB DUP2 ADD SWAP1 PUSH2 0x184 SWAP2 SWAP1 PUSH2 0x208C JUMP JUMPDEST PUSH2 0xA57 JUMP JUMPDEST STOP JUMPDEST PUSH2 0x1A5 PUSH1 0x4 DUP1 CALLDATASIZE SUB DUP2 ADD SWAP1 PUSH2 0x1A0 SWAP2 SWAP1 PUSH2 0x2133 JUMP JUMPDEST PUSH2 0xCDC JUMP JUMPDEST STOP JUMPDEST PUSH2 0x1C1 PUSH1 0x4 DUP1 CALLDATASIZE SUB DUP2 ADD SWAP1 PUSH2 0x1BC SWAP2 SWAP1 PUSH2 0x218F JUMP JUMPDEST PUSH2 0xE36 JUMP JUMPDEST STOP JUMPDEST PUSH2 0x1DD PUSH1 0x4 DUP1 CALLDATASIZE SUB DUP2 ADD SWAP1 PUSH2 0x1D8 SWAP2 SWAP1 PUSH2 0x21EB JUMP JUMPDEST PUSH2 0xFA8 JUMP JUMPDEST STOP JUMPDEST PUSH2 0x1F9 PUSH1 0x4 DUP1 CALLDATASIZE SUB DUP2 ADD SWAP1 PUSH2 0x1F4 SWAP2 SWAP1 PUSH2 0x18D5 JUMP JUMPDEST PUSH2 0x1116 JUMP JUMPDEST PUSH1 0x40 MLOAD PUSH2 0x208 SWAP4 SWAP3 SWAP2 SWAP1 PUSH2 0x2247 JUMP JUMPDEST PUSH1 0x40 MLOAD DUP1 SWAP2 SUB SWAP1 RETURN JUMPDEST PUSH2 0x219 PUSH2 0x17F0 JUMP JUMPDEST PUSH1 0x0 DUP1 SLOAD SWAP1 POP DUP3 LT PUSH2 0x260 JUMPI PUSH1 0x40 MLOAD PUSH32 0x8C379A000000000000000000000000000000000000000000000000000000000 DUP2 MSTORE PUSH1 0x4 ADD PUSH2 0x257 SWAP1 PUSH2 0x22F0 JUMP JUMPDEST PUSH1 0x40 MLOAD DUP1 SWAP2 SUB SWAP1 REVERT JUMPDEST PUSH1 0x0 DUP3 DUP2 SLOAD DUP2 LT PUSH2 0x274 JUMPI PUSH2 0x273 PUSH2 0x2310 JUMP JUMPDEST JUMPDEST SWAP1 PUSH1 0x0 MSTORE PUSH1 0x20 PUSH1 0x0 KECCAK256 SWAP1 PUSH1 0x11 MUL ADD PUSH1 0xA ADD PUSH1 0x40 MLOAD DUP1 PUSH1 0xE0 ADD PUSH1 0x40 MSTORE SWAP1 DUP2 PUSH1 0x0 DUP3 ADD SLOAD DUP2 MSTORE PUSH1 0x20 ADD PUSH1 0x1 DUP3 ADD SLOAD DUP2 MSTORE PUSH1 0x20 ADD PUSH1 0x2 DUP3 ADD SLOAD DUP2 MSTORE PUSH1 0x20 ADD PUSH1 0x3 DUP3 ADD DUP1 SLOAD PUSH2 0x2BE SWAP1 PUSH2 0x236E JUMP JUMPDEST DUP1 PUSH1 0x1F ADD PUSH1 0x20 DUP1 SWAP2 DIV MUL PUSH1 0x20 ADD PUSH1 0x40 MLOAD SWAP1 DUP2 ADD PUSH1 0x40 MSTORE DUP1 SWAP3 SWAP2 SWAP1 DUP2 DUP2 MSTORE PUSH1 0x20 ADD DUP3 DUP1 SLOAD PUSH2 0x2EA SWAP1 PUSH2 0x236E JUMP JUMPDEST DUP1 ISZERO PUSH2 0x337 JUMPI DUP1 PUSH1 0x1F LT PUSH2 0x30C JUMPI PUSH2 0x100 DUP1 DUP4 SLOAD DIV MUL DUP4 MSTORE SWAP2 PUSH1 0x20 ADD SWAP2 PUSH2 0x337 JUMP JUMPDEST DUP3 ADD SWAP2 SWAP1 PUSH1 0x0 MSTORE PUSH1 0x20 PUSH1 0x0 KECCAK256 SWAP1 JUMPDEST DUP2 SLOAD DUP2 MSTORE SWAP1 PUSH1 0x1 ADD SWAP1 PUSH1 0x20 ADD DUP1 DUP4 GT PUSH2 0x31A JUMPI DUP3 SWAP1 SUB PUSH1 0x1F AND DUP3 ADD SWAP2 JUMPDEST POP POP POP POP POP DUP2 MSTORE PUSH1 0x20 ADD PUSH1 0x4 DUP3 ADD DUP1 SLOAD PUSH2 0x350 SWAP1 PUSH2 0x236E JUMP JUMPDEST DUP1 PUSH1 0x1F ADD PUSH1 0x20 DUP1 SWAP2 DIV MUL PUSH1 0x20 ADD PUSH1 0x40 MLOAD SWAP1 DUP2 ADD PUSH1 0x40 MSTORE DUP1 SWAP3 SWAP2 SWAP1 DUP2 DUP2 MSTORE PUSH1 0x20 ADD DUP3 DUP1 SLOAD PUSH2 0x37C SWAP1 PUSH2 0x236E JUMP JUMPDEST DUP1 ISZERO PUSH2 0x3C9 JUMPI DUP1 PUSH1 0x1F LT PUSH2 0x39E JUMPI PUSH2 0x100 DUP1 DUP4 SLOAD DIV MUL DUP4 MSTORE SWAP2 PUSH1 0x20 ADD SWAP2 PUSH2 0x3C9 JUMP JUMPDEST DUP3 ADD SWAP2 SWAP1 PUSH1 0x0 MSTORE PUSH1 0x20 PUSH1 0x0 KECCAK256 SWAP1 JUMPDEST DUP2 SLOAD DUP2 MSTORE SWAP1 PUSH1 0x1 ADD SWAP1 PUSH1 0x20 ADD DUP1 DUP4 GT PUSH2 0x3AC JUMPI DUP3 SWAP1 SUB PUSH1 0x1F AND DUP3 ADD SWAP2 JUMPDEST POP POP POP POP POP DUP2 MSTORE PUSH1 0x20 ADD PUSH1 0x5 DUP3 ADD DUP1 SLOAD PUSH2 0x3E2 SWAP1 PUSH2 0x236E JUMP JUMPDEST DUP1 PUSH1 0x1F ADD PUSH1 0x20 DUP1 SWAP2 DIV MUL PUSH1 0x20 ADD PUSH1 0x40 MLOAD SWAP1 DUP2 ADD PUSH1 0x40 MSTORE DUP1 SWAP3 SWAP2 SWAP1 DUP2 DUP2 MSTORE PUSH1 0x20 ADD DUP3 DUP1 SLOAD PUSH2 0x40E SWAP1 PUSH2 0x236E JUMP JUMPDEST DUP1 ISZERO PUSH2 0x45B JUMPI DUP1 PUSH1 0x1F LT PUSH2 0x430 JUMPI PUSH2 0x100 DUP1 DUP4 SLOAD DIV MUL DUP4 MSTORE SWAP2 PUSH1 0x20 ADD SWAP2 PUSH2 0x45B JUMP JUMPDEST DUP3 ADD SWAP2 SWAP1 PUSH1 0x0 MSTORE PUSH1 0x20 PUSH1 0x0 KECCAK256 SWAP1 JUMPDEST DUP2 SLOAD DUP2 MSTORE SWAP1 PUSH1 0x1 ADD SWAP1 PUSH1 0x20 ADD DUP1 DUP4 GT PUSH2 0x43E JUMPI DUP3 SWAP1 SUB PUSH1 0x1F AND DUP3 ADD SWAP2 JUMPDEST POP POP POP POP POP DUP2 MSTORE PUSH1 0x20 ADD PUSH1 0x6 DUP3 ADD SLOAD DUP2 MSTORE POP POP SWAP1 POP SWAP2 SWAP1 POP JUMP JUMPDEST PUSH2 0x47D PUSH2 0x182D JUMP JUMPDEST PUSH1 0x0 DUP1 SLOAD SWAP1 POP DUP3 LT PUSH2 0x4C4 JUMPI PUSH1 0x40 MLOAD PUSH32 0x8C379A000000000000000000000000000000000000000000000000000000000 DUP2 MSTORE PUSH1 0x4 ADD PUSH2 0x4BB SWAP1 PUSH2 0x22F0 JUMP JUMPDEST PUSH1 0x40 MLOAD DUP1 SWAP2 SUB SWAP1 REVERT JUMPDEST PUSH1 0x0 DUP3 DUP2 SLOAD DUP2 LT PUSH2 0x4D8 JUMPI PUSH2 0x4D7 PUSH2 0x2310 JUMP JUMPDEST JUMPDEST SWAP1 PUSH1 0x0 MSTORE PUSH1 0x20 PUSH1 0x0 KECCAK256 SWAP1 PUSH1 0x11 MUL ADD PUSH1 0x0 ADD PUSH1 0x40 MLOAD DUP1 PUSH1 0xA0 ADD PUSH1 0x40 MSTORE SWAP1 DUP2 PUSH1 0x0 DUP3 ADD DUP1 SLOAD PUSH2 0x504 SWAP1 PUSH2 0x236E JUMP JUMPDEST DUP1 PUSH1 0x1F ADD PUSH1 0x20 DUP1 SWAP2 DIV MUL PUSH1 0x20 ADD PUSH1 0x40 MLOAD SWAP1 DUP2 ADD PUSH1 0x40 MSTORE DUP1 SWAP3 SWAP2 SWAP1 DUP2 DUP2 MSTORE PUSH1 0x20 ADD DUP3 DUP1 SLOAD PUSH2 0x530 SWAP1 PUSH2 0x236E JUMP JUMPDEST DUP1 ISZERO PUSH2 0x57D JUMPI DUP1 PUSH1 0x1F LT PUSH2 0x552 JUMPI PUSH2 0x100 DUP1 DUP4 SLOAD DIV MUL DUP4 MSTORE SWAP2 PUSH1 0x20 ADD SWAP2 PUSH2 0x57D JUMP JUMPDEST DUP3 ADD SWAP2 SWAP1 PUSH1 0x0 MSTORE PUSH1 0x20 PUSH1 0x0 KECCAK256 SWAP1 JUMPDEST DUP2 SLOAD DUP2 MSTORE SWAP1 PUSH1 0x1 ADD SWAP1 PUSH1 0x20 ADD DUP1 DUP4 GT PUSH2 0x560 JUMPI DUP3 SWAP1 SUB PUSH1 0x1F AND DUP3 ADD SWAP2 JUMPDEST POP POP POP POP POP DUP2 MSTORE PUSH1 0x20 ADD PUSH1 0x1 DUP3 ADD DUP1 SLOAD PUSH2 0x596 SWAP1 PUSH2 0x236E JUMP JUMPDEST DUP1 PUSH1 0x1F ADD PUSH1 0x20 DUP1 SWAP2 DIV MUL PUSH1 0x20 ADD PUSH1 0x40 MLOAD SWAP1 DUP2 ADD PUSH1 0x40 MSTORE DUP1 SWAP3 SWAP2 SWAP1 DUP2 DUP2 MSTORE PUSH1 0x20 ADD DUP3 DUP1 SLOAD PUSH2 0x5C2 SWAP1 PUSH2 0x236E JUMP JUMPDEST DUP1 ISZERO PUSH2 0x60F JUMPI DUP1 PUSH1 0x1F LT PUSH2 0x5E4 JUMPI PUSH2 0x100 DUP1 DUP4 SLOAD DIV MUL DUP4 MSTORE SWAP2 PUSH1 0x20 ADD SWAP2 PUSH2 0x60F JUMP JUMPDEST DUP3 ADD SWAP2 SWAP1 PUSH1 0x0 MSTORE PUSH1 0x20 PUSH1 0x0 KECCAK256 SWAP1 JUMPDEST DUP2 SLOAD DUP2 MSTORE SWAP1 PUSH1 0x1 ADD SWAP1 PUSH1 0x20 ADD DUP1 DUP4 GT PUSH2 0x5F2 JUMPI DUP3 SWAP1 SUB PUSH1 0x1F AND DUP3 ADD SWAP2 JUMPDEST POP POP POP POP POP DUP2 MSTORE PUSH1 0x20 ADD PUSH1 0x2 DUP3 ADD DUP1 SLOAD PUSH2 0x628 SWAP1 PUSH2 0x236E JUMP JUMPDEST DUP1 PUSH1 0x1F ADD PUSH1 0x20 DUP1 SWAP2 DIV MUL PUSH1 0x20 ADD PUSH1 0x40 MLOAD SWAP1 DUP2 ADD PUSH1 0x40 MSTORE DUP1 SWAP3 SWAP2 SWAP1 DUP2 DUP2 MSTORE PUSH1 0x20 ADD DUP3 DUP1 SLOAD PUSH2 0x654 SWAP1 PUSH2 0x236E JUMP JUMPDEST DUP1 ISZERO PUSH2 0x6A1 JUMPI DUP1 PUSH1 0x1F LT PUSH2 0x676 JUMPI PUSH2 0x100 DUP1 DUP4 SLOAD DIV MUL DUP4 MSTORE SWAP2 PUSH1 0x20 ADD SWAP2 PUSH2 0x6A1 JUMP JUMPDEST DUP3 ADD SWAP2 SWAP1 PUSH1 0x0 MSTORE PUSH1 0x20 PUSH1 0x0 KECCAK256 SWAP1 JUMPDEST DUP2 SLOAD DUP2 MSTORE SWAP1 PUSH1 0x1 ADD SWAP1 PUSH1 0x20 ADD DUP1 DUP4 GT PUSH2 0x684 JUMPI DUP3 SWAP1 SUB PUSH1 0x1F AND DUP3 ADD SWAP2 JUMPDEST POP POP POP POP POP DUP2 MSTORE PUSH1 0x20 ADD PUSH1 0x3 DUP3 ADD DUP1 SLOAD PUSH2 0x6BA SWAP1 PUSH2 0x236E JUMP JUMPDEST DUP1 PUSH1 0x1F ADD PUSH1 0x20 DUP1 SWAP2 DIV MUL PUSH1 0x20 ADD PUSH1 0x40 MLOAD SWAP1 DUP2 ADD PUSH1 0x40 MSTORE DUP1 SWAP3 SWAP2 SWAP1 DUP2 DUP2 MSTORE PUSH1 0x20 ADD DUP3 DUP1 SLOAD PUSH2 0x6E6 SWAP1 PUSH2 0x236E JUMP JUMPDEST DUP1 ISZERO PUSH2 0x733 JUMPI DUP1 PUSH1 0x1F LT PUSH2 0x708 JUMPI PUSH2 0x100 DUP1 DUP4 SLOAD DIV MUL DUP4 MSTORE SWAP2 PUSH1 0x20 ADD SWAP2 PUSH2 0x733 JUMP JUMPDEST DUP3 ADD SWAP2 SWAP1 PUSH1 0x0 MSTORE PUSH1 0x20 PUSH1 0x0 KECCAK256 SWAP1 JUMPDEST DUP2 SLOAD DUP2 MSTORE SWAP1 PUSH1 0x1 ADD SWAP1 PUSH1 0x20 ADD DUP1 DUP4 GT PUSH2 0x716 JUMPI DUP3 SWAP1 SUB PUSH1 0x1F AND DUP3 ADD SWAP2 JUMPDEST POP POP POP POP POP DUP2 MSTORE PUSH1 0x20 ADD PUSH1 0x4 DUP3 ADD DUP1 SLOAD PUSH2 0x74C SWAP1 PUSH2 0x236E JUMP JUMPDEST DUP1 PUSH1 0x1F ADD PUSH1 0x20 DUP1 SWAP2 DIV MUL PUSH1 0x20 ADD PUSH1 0x40 MLOAD SWAP1 DUP2 ADD PUSH1 0x40 MSTORE DUP1 SWAP3 SWAP2 SWAP1 DUP2 DUP2 MSTORE PUSH1 0x20 ADD DUP3 DUP1 SLOAD PUSH2 0x778 SWAP1 PUSH2 0x236E JUMP JUMPDEST DUP1 ISZERO PUSH2 0x7C5 JUMPI DUP1 PUSH1 0x1F LT PUSH2 0x79A JUMPI PUSH2 0x100 DUP1 DUP4 SLOAD DIV MUL DUP4 MSTORE SWAP2 PUSH1 0x20 ADD SWAP2 PUSH2 0x7C5 JUMP JUMPDEST DUP3 ADD SWAP2 SWAP1 PUSH1 0x0 MSTORE PUSH1 0x20 PUSH1 0x0 KECCAK256 SWAP1 JUMPDEST DUP2 SLOAD DUP2 MSTORE SWAP1 PUSH1 0x1 ADD SWAP1 PUSH1 0x20 ADD DUP1 DUP4 GT PUSH2 0x7A8 JUMPI DUP3 SWAP1 SUB PUSH1 0x1F AND DUP3 ADD SWAP2 JUMPDEST POP POP POP POP POP DUP2 MSTORE POP POP SWAP1 POP SWAP2 SWAP1 POP JUMP JUMPDEST PUSH2 0x7DD PUSH2 0x185C JUMP JUMPDEST PUSH1 0x0 DUP1 SLOAD SWAP1 POP DUP3 LT PUSH2 0x824 JUMPI PUSH1 0x40 MLOAD PUSH32 0x8C379A000000000000000000000000000000000000000000000000000000000 DUP2 MSTORE PUSH1 0x4 ADD PUSH2 0x81B SWAP1 PUSH2 0x22F0 JUMP JUMPDEST PUSH1 0x40 MLOAD DUP1 SWAP2 SUB SWAP1 REVERT JUMPDEST PUSH1 0x0 DUP3 DUP2 SLOAD DUP2 LT PUSH2 0x838 JUMPI PUSH2 0x837 PUSH2 0x2310 JUMP JUMPDEST JUMPDEST SWAP1 PUSH1 0x0 MSTORE PUSH1 0x20 PUSH1 0x0 KECCAK256 SWAP1 PUSH1 0x11 MUL ADD PUSH1 0x5 ADD PUSH1 0x40 MLOAD DUP1 PUSH1 0xA0 ADD PUSH1 0x40 MSTORE SWAP1 DUP2 PUSH1 0x0 DUP3 ADD DUP1 SLOAD PUSH2 0x864 SWAP1 PUSH2 0x236E JUMP JUMPDEST DUP1 PUSH1 0x1F ADD PUSH1 0x20 DUP1 SWAP2 DIV MUL PUSH1 0x20 ADD PUSH1 0x40 MLOAD SWAP1 DUP2 ADD PUSH1 0x40 MSTORE DUP1 SWAP3 SWAP2 SWAP1 DUP2 DUP2 MSTORE PUSH1 0x20 ADD DUP3 DUP1 SLOAD PUSH2 0x890 SWAP1 PUSH2 0x236E JUMP JUMPDEST DUP1 ISZERO PUSH2 0x8DD JUMPI DUP1 PUSH1 0x1F LT PUSH2 0x8B2 JUMPI PUSH2 0x100 DUP1 DUP4 SLOAD DIV MUL DUP4 MSTORE SWAP2 PUSH1 0x20 ADD SWAP2 PUSH2 0x8DD JUMP JUMPDEST DUP3 ADD SWAP2 SWAP1 PUSH1 0x0 MSTORE PUSH1 0x20 PUSH1 0x0 KECCAK256 SWAP1 JUMPDEST DUP2 SLOAD DUP2 MSTORE SWAP1 PUSH1 0x1 ADD SWAP1 PUSH1 0x20 ADD DUP1 DUP4 GT PUSH2 0x8C0 JUMPI DUP3 SWAP1 SUB PUSH1 0x1F AND DUP3 ADD SWAP2 JUMPDEST POP POP POP POP POP DUP2 MSTORE PUSH1 0x20 ADD PUSH1 0x1 DUP3 ADD DUP1 SLOAD PUSH2 0x8F6 SWAP1 PUSH2 0x236E JUMP JUMPDEST DUP1 PUSH1 0x1F ADD PUSH1 0x20 DUP1 SWAP2 DIV MUL PUSH1 0x20 ADD PUSH1 0x40 MLOAD SWAP1 DUP2 ADD PUSH1 0x40 MSTORE DUP1 SWAP3 SWAP2 SWAP1 DUP2 DUP2 MSTORE PUSH1 0x20 ADD DUP3 DUP1 SLOAD PUSH2 0x922 SWAP1 PUSH2 0x236E JUMP JUMPDEST DUP1 ISZERO PUSH2 0x96F JUMPI DUP1 PUSH1 0x1F LT PUSH2 0x944 JUMPI PUSH2 0x100 DUP1 DUP4 SLOAD DIV MUL DUP4 MSTORE SWAP2 PUSH1 0x20 ADD SWAP2 PUSH2 0x96F JUMP JUMPDEST DUP3 ADD SWAP2 SWAP1 PUSH1 0x0 MSTORE PUSH1 0x20 PUSH1 0x0 KECCAK256 SWAP1 JUMPDEST DUP2 SLOAD DUP2 MSTORE SWAP1 PUSH1 0x1 ADD SWAP1 PUSH1 0x20 ADD DUP1 DUP4 GT PUSH2 0x952 JUMPI DUP3 SWAP1 SUB PUSH1 0x1F AND DUP3 ADD SWAP2 JUMPDEST POP POP POP POP POP DUP2 MSTORE PUSH1 0x20 ADD PUSH1 0x2 DUP3 ADD SLOAD DUP2 MSTORE PUSH1 0x20 ADD PUSH1 0x3 DUP3 ADD SLOAD DUP2 MSTORE PUSH1 0x20 ADD PUSH1 0x4 DUP3 ADD DUP1 SLOAD PUSH2 0x99C SWAP1 PUSH2 0x236E JUMP JUMPDEST DUP1 PUSH1 0x1F ADD PUSH1 0x20 DUP1 SWAP2 DIV MUL PUSH1 0x20 ADD PUSH1 0x40 MLOAD SWAP1 DUP2 ADD PUSH1 0x40 MSTORE DUP1 SWAP3 SWAP2 SWAP1 DUP2 DUP2 MSTORE PUSH1 0x20 ADD DUP3 DUP1 SLOAD PUSH2 0x9C8 SWAP1 PUSH2 0x236E JUMP JUMPDEST DUP1 ISZERO PUSH2 0xA15 JUMPI DUP1 PUSH1 0x1F LT PUSH2 0x9EA JUMPI PUSH2 0x100 DUP1 DUP4 SLOAD DIV MUL DUP4 MSTORE SWAP2 PUSH1 0x20 ADD SWAP2 PUSH2 0xA15 JUMP JUMPDEST DUP3 ADD SWAP2 SWAP1 PUSH1 0x0 MSTORE PUSH1 0x20 PUSH1 0x0 KECCAK256 SWAP1 JUMPDEST DUP2 SLOAD DUP2 MSTORE SWAP1 PUSH1 0x1 ADD SWAP1 PUSH1 0x20 ADD DUP1 DUP4 GT PUSH2 0x9F8 JUMPI DUP3 SWAP1 SUB PUSH1 0x1F AND DUP3 ADD SWAP2 JUMPDEST POP POP POP POP POP DUP2 MSTORE POP POP SWAP1 POP SWAP2 SWAP1 POP JUMP JUMPDEST PUSH1 0x0 DUP1 DUP1 SLOAD SWAP1 POP SWAP1 POP SWAP1 JUMP JUMPDEST PUSH1 0x1 PUSH1 0x0 SWAP1 SLOAD SWAP1 PUSH2 0x100 EXP SWAP1 DIV PUSH20 0xFFFFFFFFFFFFFFFFFFFFFFFFFFFFFFFFFFFFFFFF AND DUP2 JUMP JUMPDEST PUSH1 0x1 PUSH1 0x0 SWAP1 SLOAD SWAP1 PUSH2 0x100 EXP SWAP1 DIV PUSH20 0xFFFFFFFFFFFFFFFFFFFFFFFFFFFFFFFFFFFFFFFF AND PUSH20 0xFFFFFFFFFFFFFFFFFFFFFFFFFFFFFFFFFFFFFFFF AND CALLER PUSH20 0xFFFFFFFFFFFFFFFFFFFFFFFFFFFFFFFFFFFFFFFF AND EQ PUSH2 0xAE7 JUMPI PUSH1 0x40 MLOAD PUSH32 0x8C379A000000000000000000000000000000000000000000000000000000000 DUP2 MSTORE PUSH1 0x4 ADD PUSH2 0xADE SWAP1 PUSH2 0x2411 JUMP JUMPDEST PUSH1 0x40 MLOAD DUP1 SWAP2 SUB SWAP1 REVERT JUMPDEST PUSH1 0x0 PUSH1 0x40 MLOAD DUP1 PUSH1 0x60 ADD PUSH1 0x40 MSTORE DUP1 DUP6 DUP2 MSTORE PUSH1 0x20 ADD DUP5 DUP2 MSTORE PUSH1 0x20 ADD DUP4 DUP2 MSTORE POP SWAP1 POP PUSH1 0x0 DUP2 SWAP1 DUP1 PUSH1 0x1 DUP2 SLOAD ADD DUP1 DUP3 SSTORE DUP1 SWAP2 POP POP PUSH1 0x1 SWAP1 SUB SWAP1 PUSH1 0x0 MSTORE PUSH1 0x20 PUSH1 0x0 KECCAK256 SWAP1 PUSH1 0x11 MUL ADD PUSH1 0x0 SWAP1 SWAP2 SWAP1 SWAP2 SWAP1 SWAP2 POP PUSH1 0x0 DUP3 ADD MLOAD DUP2 PUSH1 0x0 ADD PUSH1 0x0 DUP3 ADD MLOAD DUP2 PUSH1 0x0 ADD SWAP1 DUP2 PUSH2 0xB50 SWAP2 SWAP1 PUSH2 0x25DD JUMP JUMPDEST POP PUSH1 0x20 DUP3 ADD MLOAD DUP2 PUSH1 0x1 ADD SWAP1 DUP2 PUSH2 0xB66 SWAP2 SWAP1 PUSH2 0x25DD JUMP JUMPDEST POP PUSH1 0x40 DUP3 ADD MLOAD DUP2 PUSH1 0x2 ADD SWAP1 DUP2 PUSH2 0xB7C SWAP2 SWAP1 PUSH2 0x25DD JUMP JUMPDEST POP PUSH1 0x60 DUP3 ADD MLOAD DUP2 PUSH1 0x3 ADD SWAP1 DUP2 PUSH2 0xB92 SWAP2 SWAP1 PUSH2 0x25DD JUMP JUMPDEST POP PUSH1 0x80 DUP3 ADD MLOAD DUP2 PUSH1 0x4 ADD SWAP1 DUP2 PUSH2 0xBA8 SWAP2 SWAP1 PUSH2 0x25DD JUMP JUMPDEST POP POP POP PUSH1 0x20 DUP3 ADD MLOAD DUP2 PUSH1 0x5 ADD PUSH1 0x0 DUP3 ADD MLOAD DUP2 PUSH1 0x0 ADD SWAP1 DUP2 PUSH2 0xBC9 SWAP2 SWAP1 PUSH2 0x25DD JUMP JUMPDEST POP PUSH1 0x20 DUP3 ADD MLOAD DUP2 PUSH1 0x1 ADD SWAP1 DUP2 PUSH2 0xBDF SWAP2 SWAP1 PUSH2 0x25DD JUMP JUMPDEST POP PUSH1 0x40 DUP3 ADD MLOAD DUP2 PUSH1 0x2 ADD SSTORE PUSH1 0x60 DUP3 ADD MLOAD DUP2 PUSH1 0x3 ADD SSTORE PUSH1 0x80 DUP3 ADD MLOAD DUP2 PUSH1 0x4 ADD SWAP1 DUP2 PUSH2 0xC09 SWAP2 SWAP1 PUSH2 0x25DD JUMP JUMPDEST POP POP POP PUSH1 0x40 DUP3 ADD MLOAD DUP2 PUSH1 0xA ADD PUSH1 0x0 DUP3 ADD MLOAD DUP2 PUSH1 0x0 ADD SSTORE PUSH1 0x20 DUP3 ADD MLOAD DUP2 PUSH1 0x1 ADD SSTORE PUSH1 0x40 DUP3 ADD MLOAD DUP2 PUSH1 0x2 ADD SSTORE PUSH1 0x60 DUP3 ADD MLOAD DUP2 PUSH1 0x3 ADD SWAP1 DUP2 PUSH2 0xC48 SWAP2 SWAP1 PUSH2 0x25DD JUMP JUMPDEST POP PUSH1 0x80 DUP3 ADD MLOAD DUP2 PUSH1 0x4 ADD SWAP1 DUP2 PUSH2 0xC5E SWAP2 SWAP1 PUSH2 0x25DD JUMP JUMPDEST POP PUSH1 0xA0 DUP3 ADD MLOAD DUP2 PUSH1 0x5 ADD SWAP1 DUP2 PUSH2 0xC74 SWAP2 SWAP1 PUSH2 0x25DD JUMP JUMPDEST POP PUSH1 0xC0 DUP3 ADD MLOAD DUP2 PUSH1 0x6 ADD SSTORE POP POP POP POP PUSH1 0x1 PUSH1 0x0 DUP1 SLOAD SWAP1 POP PUSH2 0xC95 SWAP2 SWAP1 PUSH2 0x26DE JUMP JUMPDEST PUSH32 0x3DA4C9BFB35EC26C6D648C86E9EB4077C245397191CC803A547FA580E21FF2BB DUP6 PUSH1 0x0 ADD MLOAD DUP7 PUSH1 0x20 ADD MLOAD PUSH1 0x40 MLOAD PUSH2 0xCCE SWAP3 SWAP2 SWAP1 PUSH2 0x274B JUMP JUMPDEST PUSH1 0x40 MLOAD DUP1 SWAP2 SUB SWAP1 LOG2 POP POP POP POP JUMP JUMPDEST PUSH1 0x1 PUSH1 0x0 SWAP1 SLOAD SWAP1 PUSH2 0x100 EXP SWAP1 DIV PUSH20 0xFFFFFFFFFFFFFFFFFFFFFFFFFFFFFFFFFFFFFFFF AND PUSH20 0xFFFFFFFFFFFFFFFFFFFFFFFFFFFFFFFFFFFFFFFF AND CALLER PUSH20 0xFFFFFFFFFFFFFFFFFFFFFFFFFFFFFFFFFFFFFFFF AND EQ PUSH2 0xD6C JUMPI PUSH1 0x40 MLOAD PUSH32 0x8C379A000000000000000000000000000000000000000000000000000000000 DUP2 MSTORE PUSH1 0x4 ADD PUSH2 0xD63 SWAP1 PUSH2 0x2411 JUMP JUMPDEST PUSH1 0x40 MLOAD DUP1 SWAP2 SUB SWAP1 REVERT JUMPDEST PUSH1 0x0 DUP1 SLOAD SWAP1 POP DUP3 LT PUSH2 0xDB3 JUMPI PUSH1 0x40 MLOAD PUSH32 0x8C379A000000000000000000000000000000000000000000000000000000000 DUP2 MSTORE PUSH1 0x4 ADD PUSH2 0xDAA SWAP1 PUSH2 0x22F0 JUMP JUMPDEST PUSH1 0x40 MLOAD DUP1 SWAP2 SUB SWAP1 REVERT JUMPDEST DUP1 PUSH1 0x0 DUP4 DUP2 SLOAD DUP2 LT PUSH2 0xDC8 JUMPI PUSH2 0xDC7 PUSH2 0x2310 JUMP JUMPDEST JUMPDEST SWAP1 PUSH1 0x0 MSTORE PUSH1 0x20 PUSH1 0x0 KECCAK256 SWAP1 PUSH1 0x11 MUL ADD PUSH1 0x5 ADD PUSH1 0x0 DUP3 ADD MLOAD DUP2 PUSH1 0x0 ADD SWAP1 DUP2 PUSH2 0xDEE SWAP2 SWAP1 PUSH2 0x25DD JUMP JUMPDEST POP PUSH1 0x20 DUP3 ADD MLOAD DUP2 PUSH1 0x1 ADD SWAP1 DUP2 PUSH2 0xE04 SWAP2 SWAP1 PUSH2 0x25DD JUMP JUMPDEST POP PUSH1 0x40 DUP3 ADD MLOAD DUP2 PUSH1 0x2 ADD SSTORE PUSH1 0x60 DUP3 ADD MLOAD DUP2 PUSH1 0x3 ADD SSTORE PUSH1 0x80 DUP3 ADD MLOAD DUP2 PUSH1 0x4 ADD SWAP1 DUP2 PUSH2 0xE2E SWAP2 SWAP1 PUSH2 0x25DD JUMP JUMPDEST POP SWAP1 POP POP POP POP JUMP JUMPDEST PUSH1 0x1 PUSH1 0x0 SWAP1 SLOAD SWAP1 PUSH2 0x100 EXP SWAP1 DIV PUSH20 0xFFFFFFFFFFFFFFFFFFFFFFFFFFFFFFFFFFFFFFFF AND PUSH20 0xFFFFFFFFFFFFFFFFFFFFFFFFFFFFFFFFFFFFFFFF AND CALLER PUSH20 0xFFFFFFFFFFFFFFFFFFFFFFFFFFFFFFFFFFFFFFFF AND EQ PUSH2 0xEC6 JUMPI PUSH1 0x40 MLOAD PUSH32 0x8C379A000000000000000000000000000000000000000000000000000000000 DUP2 MSTORE PUSH1 0x4 ADD PUSH2 0xEBD SWAP1 PUSH2 0x2411 JUMP JUMPDEST PUSH1 0x40 MLOAD DUP1 SWAP2 SUB SWAP1 REVERT JUMPDEST PUSH1 0x0 DUP1 SLOAD SWAP1 POP DUP3 LT PUSH2 0xF0D JUMPI PUSH1 0x40 MLOAD PUSH32 0x8C379A000000000000000000000000000000000000000000000000000000000 DUP2 MSTORE PUSH1 0x4 ADD PUSH2 0xF04 SWAP1 PUSH2 0x22F0 JUMP JUMPDEST PUSH1 0x40 MLOAD DUP1 SWAP2 SUB SWAP1 REVERT JUMPDEST DUP1 PUSH1 0x0 DUP4 DUP2 SLOAD DUP2 LT PUSH2 0xF22 JUMPI PUSH2 0xF21 PUSH2 0x2310 JUMP JUMPDEST JUMPDEST SWAP1 PUSH1 0x0 MSTORE PUSH1 0x20 PUSH1 0x0 KECCAK256 SWAP1 PUSH1 0x11 MUL ADD PUSH1 0x0 ADD PUSH1 0x0 DUP3 ADD MLOAD DUP2 PUSH1 0x0 ADD SWAP1 DUP2 PUSH2 0xF48 SWAP2 SWAP1 PUSH2 0x25DD JUMP JUMPDEST POP PUSH1 0x20 DUP3 ADD MLOAD DUP2 PUSH1 0x1 ADD SWAP1 DUP2 PUSH2 0xF5E SWAP2 SWAP1 PUSH2 0x25DD JUMP JUMPDEST POP PUSH1 0x40 DUP3 ADD MLOAD DUP2 PUSH1 0x2 ADD SWAP1 DUP2 PUSH2 0xF74 SWAP2 SWAP1 PUSH2 0x25DD JUMP JUMPDEST POP PUSH1 0x60 DUP3 ADD MLOAD DUP2 PUSH1 0x3 ADD SWAP1 DUP2 PUSH2 0xF8A SWAP2 SWAP1 PUSH2 0x25DD JUMP JUMPDEST POP PUSH1 0x80 DUP3 ADD MLOAD DUP2 PUSH1 0x4 ADD SWAP1 DUP2 PUSH2 0xFA0 SWAP2 SWAP1 PUSH2 0x25DD JUMP JUMPDEST POP SWAP1 POP POP POP POP JUMP JUMPDEST PUSH1 0x1 PUSH1 0x0 SWAP1 SLOAD SWAP1 PUSH2 0x100 EXP SWAP1 DIV PUSH20 0xFFFFFFFFFFFFFFFFFFFFFFFFFFFFFFFFFFFFFFFF AND PUSH20 0xFFFFFFFFFFFFFFFFFFFFFFFFFFFFFFFFFFFFFFFF AND CALLER PUSH20 0xFFFFFFFFFFFFFFFFFFFFFFFFFFFFFFFFFFFFFFFF AND EQ PUSH2 0x1038 JUMPI PUSH1 0x40 MLOAD PUSH32 0x8C379A000000000000000000000000000000000000000000000000000000000 DUP2 MSTORE PUSH1 0x4 ADD PUSH2 0x102F SWAP1 PUSH2 0x2411 JUMP JUMPDEST PUSH1 0x40 MLOAD DUP1 SWAP2 SUB SWAP1 REVERT JUMPDEST PUSH1 0x0 DUP1 SLOAD SWAP1 POP DUP3 LT PUSH2 0x107F JUMPI PUSH1 0x40 MLOAD PUSH32 0x8C379A000000000000000000000000000000000000000000000000000000000 DUP2 MSTORE PUSH1 0x4 ADD PUSH2 0x1076 SWAP1 PUSH2 0x22F0 JUMP JUMPDEST PUSH1 0x40 MLOAD DUP1 SWAP2 SUB SWAP1 REVERT JUMPDEST DUP1 PUSH1 0x0 DUP4 DUP2 SLOAD DUP2 LT PUSH2 0x1094 JUMPI PUSH2 0x1093 PUSH2 0x2310 JUMP JUMPDEST JUMPDEST SWAP1 PUSH1 0x0 MSTORE PUSH1 0x20 PUSH1 0x0 KECCAK256 SWAP1 PUSH1 0x11 MUL ADD PUSH1 0xA ADD PUSH1 0x0 DUP3 ADD MLOAD DUP2 PUSH1 0x0 ADD SSTORE PUSH1 0x20 DUP3 ADD MLOAD DUP2 PUSH1 0x1 ADD SSTORE PUSH1 0x40 DUP3 ADD MLOAD DUP2 PUSH1 0x2 ADD SSTORE PUSH1 0x60 DUP3 ADD MLOAD DUP2 PUSH1 0x3 ADD SWAP1 DUP2 PUSH2 0x10D8 SWAP2 SWAP1 PUSH2 0x25DD JUMP JUMPDEST POP PUSH1 0x80 DUP3 ADD MLOAD DUP2 PUSH1 0x4 ADD SWAP1 DUP2 PUSH2 0x10EE SWAP2 SWAP1 PUSH2 0x25DD JUMP JUMPDEST POP PUSH1 0xA0 DUP3 ADD MLOAD DUP2 PUSH1 0x5 ADD SWAP1 DUP2 PUSH2 0x1104 SWAP2 SWAP1 PUSH2 0x25DD JUMP JUMPDEST POP PUSH1 0xC0 DUP3 ADD MLOAD DUP2 PUSH1 0x6 ADD SSTORE SWAP1 POP POP POP POP JUMP JUMPDEST PUSH1 0x0 DUP2 DUP2 SLOAD DUP2 LT PUSH2 0x1126 JUMPI PUSH1 0x0 DUP1 REVERT JUMPDEST SWAP1 PUSH1 0x0 MSTORE PUSH1 0x20 PUSH1 0x0 KECCAK256 SWAP1 PUSH1 0x11 MUL ADD PUSH1 0x0 SWAP2 POP SWAP1 POP DUP1 PUSH1 0x0 ADD PUSH1 0x40 MLOAD DUP1 PUSH1 0xA0 ADD PUSH1 0x40 MSTORE SWAP1 DUP2 PUSH1 0x0 DUP3 ADD DUP1 SLOAD PUSH2 0x1159 SWAP1 PUSH2 0x236E JUMP JUMPDEST DUP1 PUSH1 0x1F ADD PUSH1 0x20 DUP1 SWAP2 DIV MUL PUSH1 0x20 ADD PUSH1 0x40 MLOAD SWAP1 DUP2 ADD PUSH1 0x40 MSTORE DUP1 SWAP3 SWAP2 SWAP1 DUP2 DUP2 MSTORE PUSH1 0x20 ADD DUP3 DUP1 SLOAD PUSH2 0x1185 SWAP1 PUSH2 0x236E JUMP JUMPDEST DUP1 ISZERO PUSH2 0x11D2 JUMPI DUP1 PUSH1 0x1F LT PUSH2 0x11A7 JUMPI PUSH2 0x100 DUP1 DUP4 SLOAD DIV MUL DUP4 MSTORE SWAP2 PUSH1 0x20 ADD SWAP2 PUSH2 0x11D2 JUMP JUMPDEST DUP3 ADD SWAP2 SWAP1 PUSH1 0x0 MSTORE PUSH1 0x20 PUSH1 0x0 KECCAK256 SWAP1 JUMPDEST DUP2 SLOAD DUP2 MSTORE SWAP1 PUSH1 0x1 ADD SWAP1 PUSH1 0x20 ADD DUP1 DUP4 GT PUSH2 0x11B5 JUMPI DUP3 SWAP1 SUB PUSH1 0x1F AND DUP3 ADD SWAP2 JUMPDEST POP POP POP POP POP DUP2 MSTORE PUSH1 0x20 ADD PUSH1 0x1 DUP3 ADD DUP1 SLOAD PUSH2 0x11EB SWAP1 PUSH2 0x236E JUMP JUMPDEST DUP1 PUSH1 0x1F ADD PUSH1 0x20 DUP1 SWAP2 DIV MUL PUSH1 0x20 ADD PUSH1 0x40 MLOAD SWAP1 DUP2 ADD PUSH1 0x40 MSTORE DUP1 SWAP3 SWAP2 SWAP1 DUP2 DUP2 MSTORE PUSH1 0x20 ADD DUP3 DUP1 SLOAD PUSH2 0x1217 SWAP1 PUSH2 0x236E JUMP JUMPDEST DUP1 ISZERO PUSH2 0x1264 JUMPI DUP1 PUSH1 0x1F LT PUSH2 0x1239 JUMPI PUSH2 0x100 DUP1 DUP4 SLOAD DIV MUL DUP4 MSTORE SWAP2 PUSH1 0x20 ADD SWAP2 PUSH2 0x1264 JUMP JUMPDEST DUP3 ADD SWAP2 SWAP1 PUSH1 0x0 MSTORE PUSH1 0x20 PUSH1 0x0 KECCAK256 SWAP1 JUMPDEST DUP2 SLOAD DUP2 MSTORE SWAP1 PUSH1 0x1 ADD SWAP1 PUSH1 0x20 ADD DUP1 DUP4 GT PUSH2 0x1247 JUMPI DUP3 SWAP1 SUB PUSH1 0x1F AND DUP3 ADD SWAP2 JUMPDEST POP POP POP POP POP DUP2 MSTORE PUSH1 0x20 ADD PUSH1 0x2 DUP3 ADD DUP1 SLOAD PUSH2 0x127D SWAP1 PUSH2 0x236E JUMP JUMPDEST DUP1 PUSH1 0x1F ADD PUSH1 0x20 DUP1 SWAP2 DIV MUL PUSH1 0x20 ADD PUSH1 0x40 MLOAD SWAP1 DUP2 ADD PUSH1 0x40 MSTORE DUP1 SWAP3 SWAP2 SWAP1 DUP2 DUP2 MSTORE PUSH1 0x20 ADD DUP3 DUP1 SLOAD PUSH2 0x12A9 SWAP1 PUSH2 0x236E JUMP JUMPDEST DUP1 ISZERO PUSH2 0x12F6 JUMPI DUP1 PUSH1 0x1F LT PUSH2 0x12CB JUMPI PUSH2 0x100 DUP1 DUP4 SLOAD DIV MUL DUP4 MSTORE SWAP2 PUSH1 0x20 ADD SWAP2 PUSH2 0x12F6 JUMP JUMPDEST DUP3 ADD SWAP2 SWAP1 PUSH1 0x0 MSTORE PUSH1 0x20 PUSH1 0x0 KECCAK256 SWAP1 JUMPDEST DUP2 SLOAD DUP2 MSTORE SWAP1 PUSH1 0x1 ADD SWAP1 PUSH1 0x20 ADD DUP1 DUP4 GT PUSH2 0x12D9 JUMPI DUP3 SWAP1 SUB PUSH1 0x1F AND DUP3 ADD SWAP2 JUMPDEST POP POP POP POP POP DUP2 MSTORE PUSH1 0x20 ADD PUSH1 0x3 DUP3 ADD DUP1 SLOAD PUSH2 0x130F SWAP1 PUSH2 0x236E JUMP JUMPDEST DUP1 PUSH1 0x1F ADD PUSH1 0x20 DUP1 SWAP2 DIV MUL PUSH1 0x20 ADD PUSH1 0x40 MLOAD SWAP1 DUP2 ADD PUSH1 0x40 MSTORE DUP1 SWAP3 SWAP2 SWAP1 DUP2 DUP2 MSTORE PUSH1 0x20 ADD DUP3 DUP1 SLOAD PUSH2 0x133B SWAP1 PUSH2 0x236E JUMP JUMPDEST DUP1 ISZERO PUSH2 0x1388 JUMPI DUP1 PUSH1 0x1F LT PUSH2 0x135D JUMPI PUSH2 0x100 DUP1 DUP4 SLOAD DIV MUL DUP4 MSTORE SWAP2 PUSH1 0x20 ADD SWAP2 PUSH2 0x1388 JUMP JUMPDEST DUP3 ADD SWAP2 SWAP1 PUSH1 0x0 MSTORE PUSH1 0x20 PUSH1 0x0 KECCAK256 SWAP1 JUMPDEST DUP2 SLOAD DUP2 MSTORE SWAP1 PUSH1 0x1 ADD SWAP1 PUSH1 0x20 ADD DUP1 DUP4 GT PUSH2 0x136B JUMPI DUP3 SWAP1 SUB PUSH1 0x1F AND DUP3 ADD SWAP2 JUMPDEST POP POP POP POP POP DUP2 MSTORE PUSH1 0x20 ADD PUSH1 0x4 DUP3 ADD DUP1 SLOAD PUSH2 0x13A1 SWAP1 PUSH2 0x236E JUMP JUMPDEST DUP1 PUSH1 0x1F ADD PUSH1 0x20 DUP1 SWAP2 DIV MUL PUSH1 0x20 ADD PUSH1 0x40 MLOAD SWAP1 DUP2 ADD PUSH1 0x40 MSTORE DUP1 SWAP3 SWAP2 SWAP1 DUP2 DUP2 MSTORE PUSH1 0x20 ADD DUP3 DUP1 SLOAD PUSH2 0x13CD SWAP1 PUSH2 0x236E JUMP JUMPDEST DUP1 ISZERO PUSH2 0x141A JUMPI DUP1 PUSH1 0x1F LT PUSH2 0x13EF JUMPI PUSH2 0x100 DUP1 DUP4 SLOAD DIV MUL DUP4 MSTORE SWAP2 PUSH1 0x20 ADD SWAP2 PUSH2 0x141A JUMP JUMPDEST DUP3 ADD SWAP2 SWAP1 PUSH1 0x0 MSTORE PUSH1 0x20 PUSH1 0x0 KECCAK256 SWAP1 JUMPDEST DUP2 SLOAD DUP2 MSTORE SWAP1 PUSH1 0x1 ADD SWAP1 PUSH1 0x20 ADD DUP1 DUP4 GT PUSH2 0x13FD JUMPI DUP3 SWAP1 SUB PUSH1 0x1F AND DUP3 ADD SWAP2 JUMPDEST POP POP POP POP POP DUP2 MSTORE POP POP SWAP1 DUP1 PUSH1 0x5 ADD PUSH1 0x40 MLOAD DUP1 PUSH1 0xA0 ADD PUSH1 0x40 MSTORE SWAP1 DUP2 PUSH1 0x0 DUP3 ADD DUP1 SLOAD PUSH2 0x1443 SWAP1 PUSH2 0x236E JUMP JUMPDEST DUP1 PUSH1 0x1F ADD PUSH1 0x20 DUP1 SWAP2 DIV MUL PUSH1 0x20 ADD PUSH1 0x40 MLOAD SWAP1 DUP2 ADD PUSH1 0x40 MSTORE DUP1 SWAP3 SWAP2 SWAP1 DUP2 DUP2 MSTORE PUSH1 0x20 ADD DUP3 DUP1 SLOAD PUSH2 0x146F SWAP1 PUSH2 0x236E JUMP JUMPDEST DUP1 ISZERO PUSH2 0x14BC JUMPI DUP1 PUSH1 0x1F LT PUSH2 0x1491 JUMPI PUSH2 0x100 DUP1 DUP4 SLOAD DIV MUL DUP4 MSTORE SWAP2 PUSH1 0x20 ADD SWAP2 PUSH2 0x14BC JUMP JUMPDEST DUP3 ADD SWAP2 SWAP1 PUSH1 0x0 MSTORE PUSH1 0x20 PUSH1 0x0 KECCAK256 SWAP1 JUMPDEST DUP2 SLOAD DUP2 MSTORE SWAP1 PUSH1 0x1 ADD SWAP1 PUSH1 0x20 ADD DUP1 DUP4 GT PUSH2 0x149F JUMPI DUP3 SWAP1 SUB PUSH1 0x1F AND DUP3 ADD SWAP2 JUMPDEST POP POP POP POP POP DUP2 MSTORE PUSH1 0x20 ADD PUSH1 0x1 DUP3 ADD DUP1 SLOAD PUSH2 0x14D5 SWAP1 PUSH2 0x236E JUMP JUMPDEST DUP1 PUSH1 0x1F ADD PUSH1 0x20 DUP1 SWAP2 DIV MUL PUSH1 0x20 ADD PUSH1 0x40 MLOAD SWAP1 DUP2 ADD PUSH1 0x40 MSTORE DUP1 SWAP3 SWAP2 SWAP1 DUP2 DUP2 MSTORE PUSH1 0x20 ADD DUP3 DUP1 SLOAD PUSH2 0x1501 SWAP1 PUSH2 0x236E JUMP JUMPDEST DUP1 ISZERO PUSH2 0x154E JUMPI DUP1 PUSH1 0x1F LT PUSH2 0x1523 JUMPI PUSH2 0x100 DUP1 DUP4 SLOAD DIV MUL DUP4 MSTORE SWAP2 PUSH1 0x20 ADD SWAP2 PUSH2 0x154E JUMP JUMPDEST DUP3 ADD SWAP2 SWAP1 PUSH1 0x0 MSTORE PUSH1 0x20 PUSH1 0x0 KECCAK256 SWAP1 JUMPDEST DUP2 SLOAD DUP2 MSTORE SWAP1 PUSH1 0x1 ADD SWAP1 PUSH1 0x20 ADD DUP1 DUP4 GT PUSH2 0x1531 JUMPI DUP3 SWAP1 SUB PUSH1 0x1F AND DUP3 ADD SWAP2 JUMPDEST POP POP POP POP POP DUP2 MSTORE PUSH1 0x20 ADD PUSH1 0x2 DUP3 ADD SLOAD DUP2 MSTORE PUSH1 0x20 ADD PUSH1 0x3 DUP3 ADD SLOAD DUP2 MSTORE PUSH1 0x20 ADD PUSH1 0x4 DUP3 ADD DUP1 SLOAD PUSH2 0x157B SWAP1 PUSH2 0x236E JUMP JUMPDEST DUP1 PUSH1 0x1F ADD PUSH1 0x20 DUP1 SWAP2 DIV MUL PUSH1 0x20 ADD PUSH1 0x40 MLOAD SWAP1 DUP2 ADD PUSH1 0x40 MSTORE DUP1 SWAP3 SWAP2 SWAP1 DUP2 DUP2 MSTORE PUSH1 0x20 ADD DUP3 DUP1 SLOAD PUSH2 0x15A7 SWAP1 PUSH2 0x236E JUMP JUMPDEST DUP1 ISZERO PUSH2 0x15F4 JUMPI DUP1 PUSH1 0x1F LT PUSH2 0x15C9 JUMPI PUSH2 0x100 DUP1 DUP4 SLOAD DIV MUL DUP4 MSTORE SWAP2 PUSH1 0x20 ADD SWAP2 PUSH2 0x15F4 JUMP JUMPDEST DUP3 ADD SWAP2 SWAP1 PUSH1 0x0 MSTORE PUSH1 0x20 PUSH1 0x0 KECCAK256 SWAP1 JUMPDEST DUP2 SLOAD DUP2 MSTORE SWAP1 PUSH1 0x1 ADD SWAP1 PUSH1 0x20 ADD DUP1 DUP4 GT PUSH2 0x15D7 JUMPI DUP3 SWAP1 SUB PUSH1 0x1F AND DUP3 ADD SWAP2 JUMPDEST POP POP POP POP POP DUP2 MSTORE POP POP SWAP1 DUP1 PUSH1 0xA ADD PUSH1 0x40 MLOAD DUP1 PUSH1 0xE0 ADD PUSH1 0x40 MSTORE SWAP1 DUP2 PUSH1 0x0 DUP3 ADD SLOAD DUP2 MSTORE PUSH1 0x20 ADD PUSH1 0x1 DUP3 ADD SLOAD DUP2 MSTORE PUSH1 0x20 ADD PUSH1 0x2 DUP3 ADD SLOAD DUP2 MSTORE PUSH1 0x20 ADD PUSH1 0x3 DUP3 ADD DUP1 SLOAD PUSH2 0x163B SWAP1 PUSH2 0x236E JUMP JUMPDEST DUP1 PUSH1 0x1F ADD PUSH1 0x20 DUP1 SWAP2 DIV MUL PUSH1 0x20 ADD PUSH1 0x40 MLOAD SWAP1 DUP2 ADD PUSH1 0x40 MSTORE DUP1 SWAP3 SWAP2 SWAP1 DUP2 DUP2 MSTORE PUSH1 0x20 ADD DUP3 DUP1 SLOAD PUSH2 0x1667 SWAP1 PUSH2 0x236E JUMP JUMPDEST DUP1 ISZERO PUSH2 0x16B4 JUMPI DUP1 PUSH1 0x1F LT PUSH2 0x1689 JUMPI PUSH2 0x100 DUP1 DUP4 SLOAD DIV MUL DUP4 MSTORE SWAP2 PUSH1 0x20 ADD SWAP2 PUSH2 0x16B4 JUMP JUMPDEST DUP3 ADD SWAP2 SWAP1 PUSH1 0x0 MSTORE PUSH1 0x20 PUSH1 0x0 KECCAK256 SWAP1 JUMPDEST DUP2 SLOAD DUP2 MSTORE SWAP1 PUSH1 0x1 ADD SWAP1 PUSH1 0x20 ADD DUP1 DUP4 GT PUSH2 0x1697 JUMPI DUP3 SWAP1 SUB PUSH1 0x1F AND DUP3 ADD SWAP2 JUMPDEST POP POP POP POP POP DUP2 MSTORE PUSH1 0x20 ADD PUSH1 0x4 DUP3 ADD DUP1 SLOAD PUSH2 0x16CD SWAP1 PUSH2 0x236E JUMP JUMPDEST DUP1 PUSH1 0x1F ADD PUSH1 0x20 DUP1 SWAP2 DIV MUL PUSH1 0x20 ADD PUSH1 0x40 MLOAD SWAP1 DUP2 ADD PUSH1 0x40 MSTORE DUP1 SWAP3 SWAP2 SWAP1 DUP2 DUP2 MSTORE PUSH1 0x20 ADD DUP3 DUP1 SLOAD PUSH2 0x16F9 SWAP1 PUSH2 0x236E JUMP JUMPDEST DUP1 ISZERO PUSH2 0x1746 JUMPI DUP1 PUSH1 0x1F LT PUSH2 0x171B JUMPI PUSH2 0x100 DUP1 DUP4 SLOAD DIV MUL DUP4 MSTORE SWAP2 PUSH1 0x20 ADD SWAP2 PUSH2 0x1746 JUMP JUMPDEST DUP3 ADD SWAP2 SWAP1 PUSH1 0x0 MSTORE PUSH1 0x20 PUSH1 0x0 KECCAK256 SWAP1 JUMPDEST DUP2 SLOAD DUP2 MSTORE SWAP1 PUSH1 0x1 ADD SWAP1 PUSH1 0x20 ADD DUP1 DUP4 GT PUSH2 0x1729 JUMPI DUP3 SWAP1 SUB PUSH1 0x1F AND DUP3 ADD SWAP2 JUMPDEST POP POP POP POP POP DUP2 MSTORE PUSH1 0x20 ADD PUSH1 0x5 DUP3 ADD DUP1 SLOAD PUSH2 0x175F SWAP1 PUSH2 0x236E JUMP JUMPDEST DUP1 PUSH1 0x1F ADD PUSH1 0x20 DUP1 SWAP2 DIV MUL PUSH1 0x20 ADD PUSH1 0x40 MLOAD SWAP1 DUP2 ADD PUSH1 0x40 MSTORE DUP1 SWAP3 SWAP2 SWAP1 DUP2 DUP2 MSTORE PUSH1 0x20 ADD DUP3 DUP1 SLOAD PUSH2 0x178B SWAP1 PUSH2 0x236E JUMP JUMPDEST DUP1 ISZERO PUSH2 0x17D8 JUMPI DUP1 PUSH1 0x1F LT PUSH2 0x17AD JUMPI PUSH2 0x100 DUP1 DUP4 SLOAD DIV MUL DUP4 MSTORE SWAP2 PUSH1 0x20 ADD SWAP2 PUSH2 0x17D8 JUMP JUMPDEST DUP3 ADD SWAP2 SWAP1 PUSH1 0x0 MSTORE PUSH1 0x20 PUSH1 0x0 KECCAK256 SWAP1 JUMPDEST DUP2 SLOAD DUP2 MSTORE SWAP1 PUSH1 0x1 ADD SWAP1 PUSH1 0x20 ADD DUP1 DUP4 GT PUSH2 0x17BB JUMPI DUP3 SWAP1 SUB PUSH1 0x1F AND DUP3 ADD SWAP2 JUMPDEST POP POP POP POP POP DUP2 MSTORE PUSH1 0x20 ADD PUSH1 0x6 DUP3 ADD SLOAD DUP2 MSTORE POP POP SWAP1 POP DUP4 JUMP JUMPDEST PUSH1 0x40 MLOAD DUP1 PUSH1 0xE0 ADD PUSH1 0x40 MSTORE DUP1 PUSH1 0x0 DUP2 MSTORE PUSH1 0x20 ADD PUSH1 0x0 DUP2 MSTORE PUSH1 0x20 ADD PUSH1 0x0 DUP2 MSTORE PUSH1 0x20 ADD PUSH1 0x60 DUP2 MSTORE PUSH1 0x20 ADD PUSH1 0x60 DUP2 MSTORE PUSH1 0x20 ADD PUSH1 0x60 DUP2 MSTORE PUSH1 0x20 ADD PUSH1 0x0 DUP2 MSTORE POP SWAP1 JUMP JUMPDEST PUSH1 0x40 MLOAD DUP1 PUSH1 0xA0 ADD PUSH1 0x40 MSTORE DUP1 PUSH1 0x60 DUP2 MSTORE PUSH1 0x20 ADD PUSH1 0x60 DUP2 MSTORE PUSH1 0x20 ADD PUSH1 0x60 DUP2 MSTORE PUSH1 0x20 ADD PUSH1 0x60 DUP2 MSTORE PUSH1 0x20 ADD PUSH1 0x60 DUP2 MSTORE POP SWAP1 JUMP JUMPDEST PUSH1 0x40 MLOAD DUP1 PUSH1 0xA0 ADD PUSH1 0x40 MSTORE DUP1 PUSH1 0x60 DUP2 MSTORE PUSH1 0x20 ADD PUSH1 0x60 DUP2 MSTORE PUSH1 0x20 ADD PUSH1 0x0 DUP2 MSTORE PUSH1 0x20 ADD PUSH1 0x0 DUP2 MSTORE PUSH1 0x20 ADD PUSH1 0x60 DUP2 MSTORE POP SWAP1 JUMP JUMPDEST PUSH1 0x0 PUSH1 0x40 MLOAD SWAP1 POP SWAP1 JUMP JUMPDEST PUSH1 0x0 DUP1 REVERT JUMPDEST PUSH1 0x0 DUP1 REVERT JUMPDEST PUSH1 0x0 DUP2 SWAP1 POP SWAP2 SWAP1 POP JUMP JUMPDEST PUSH2 0x18B2 DUP2 PUSH2 0x189F JUMP JUMPDEST DUP2 EQ PUSH2 0x18BD JUMPI PUSH1 0x0 DUP1 REVERT JUMPDEST POP JUMP JUMPDEST PUSH1 0x0 DUP2 CALLDATALOAD SWAP1 POP PUSH2 0x18CF DUP2 PUSH2 0x18A9 JUMP JUMPDEST SWAP3 SWAP2 POP POP JUMP JUMPDEST PUSH1 0x0 PUSH1 0x20 DUP3 DUP5 SUB SLT ISZERO PUSH2 0x18EB JUMPI PUSH2 0x18EA PUSH2 0x1895 JUMP JUMPDEST JUMPDEST PUSH1 0x0 PUSH2 0x18F9 DUP5 DUP3 DUP6 ADD PUSH2 0x18C0 JUMP JUMPDEST SWAP2 POP POP SWAP3 SWAP2 POP POP JUMP JUMPDEST PUSH2 0x190B DUP2 PUSH2 0x189F JUMP JUMPDEST DUP3 MSTORE POP POP JUMP JUMPDEST PUSH1 0x0 DUP2 MLOAD SWAP1 POP SWAP2 SWAP1 POP JUMP JUMPDEST PUSH1 0x0 DUP3 DUP3 MSTORE PUSH1 0x20 DUP3 ADD SWAP1 POP SWAP3 SWAP2 POP POP JUMP JUMPDEST PUSH1 0x0 JUMPDEST DUP4 DUP2 LT ISZERO PUSH2 0x194B JUMPI DUP1 DUP3 ADD MLOAD DUP2 DUP5 ADD MSTORE PUSH1 0x20 DUP2 ADD SWAP1 POP PUSH2 0x1930 JUMP JUMPDEST PUSH1 0x0 DUP5 DUP5 ADD MSTORE POP POP POP POP JUMP JUMPDEST PUSH1 0x0 PUSH1 0x1F NOT PUSH1 0x1F DUP4 ADD AND SWAP1 POP SWAP2 SWAP1 POP JUMP JUMPDEST PUSH1 0x0 PUSH2 0x1973 DUP3 PUSH2 0x1911 JUMP JUMPDEST PUSH2 0x197D DUP2 DUP6 PUSH2 0x191C JUMP JUMPDEST SWAP4 POP PUSH2 0x198D DUP2 DUP6 PUSH1 0x20 DUP7 ADD PUSH2 0x192D JUMP JUMPDEST PUSH2 0x1996 DUP2 PUSH2 0x1957 JUMP JUMPDEST DUP5 ADD SWAP2 POP POP SWAP3 SWAP2 POP POP JUMP JUMPDEST PUSH1 0x0 PUSH1 0xE0 DUP4 ADD PUSH1 0x0 DUP4 ADD MLOAD PUSH2 0x19B9 PUSH1 0x0 DUP7 ADD DUP3 PUSH2 0x1902 JUMP JUMPDEST POP PUSH1 0x20 DUP4 ADD MLOAD PUSH2 0x19CC PUSH1 0x20 DUP7 ADD DUP3 PUSH2 0x1902 JUMP JUMPDEST POP PUSH1 0x40 DUP4 ADD MLOAD PUSH2 0x19DF PUSH1 0x40 DUP7 ADD DUP3 PUSH2 0x1902 JUMP JUMPDEST POP PUSH1 0x60 DUP4 ADD MLOAD DUP5 DUP3 SUB PUSH1 0x60 DUP7 ADD MSTORE PUSH2 0x19F7 DUP3 DUP3 PUSH2 0x1968 JUMP JUMPDEST SWAP2 POP POP PUSH1 0x80 DUP4 ADD MLOAD DUP5 DUP3 SUB PUSH1 0x80 DUP7 ADD MSTORE PUSH2 0x1A11 DUP3 DUP3 PUSH2 0x1968 JUMP JUMPDEST SWAP2 POP POP PUSH1 0xA0 DUP4 ADD MLOAD DUP5 DUP3 SUB PUSH1 0xA0 DUP7 ADD MSTORE PUSH2 0x1A2B DUP3 DUP3 PUSH2 0x1968 JUMP JUMPDEST SWAP2 POP POP PUSH1 0xC0 DUP4 ADD MLOAD PUSH2 0x1A40 PUSH1 0xC0 DUP7 ADD DUP3 PUSH2 0x1902 JUMP JUMPDEST POP DUP1 SWAP2 POP POP SWAP3 SWAP2 POP POP JUMP JUMPDEST PUSH1 0x0 PUSH1 0x20 DUP3 ADD SWAP1 POP DUP2 DUP2 SUB PUSH1 0x0 DUP4 ADD MSTORE PUSH2 0x1A65 DUP2 DUP5 PUSH2 0x19A1 JUMP JUMPDEST SWAP1 POP SWAP3 SWAP2 POP POP JUMP JUMPDEST PUSH1 0x0 PUSH1 0xA0 DUP4 ADD PUSH1 0x0 DUP4 ADD MLOAD DUP5 DUP3 SUB PUSH1 0x0 DUP7 ADD MSTORE PUSH2 0x1A8A DUP3 DUP3 PUSH2 0x1968 JUMP JUMPDEST SWAP2 POP POP PUSH1 0x20 DUP4 ADD MLOAD DUP5 DUP3 SUB PUSH1 0x20 DUP7 ADD MSTORE PUSH2 0x1AA4 DUP3 DUP3 PUSH2 0x1968 JUMP JUMPDEST SWAP2 POP POP PUSH1 0x40 DUP4 ADD MLOAD DUP5 DUP3 SUB PUSH1 0x40 DUP7 ADD MSTORE PUSH2 0x1ABE DUP3 DUP3 PUSH2 0x1968 JUMP JUMPDEST SWAP2 POP POP PUSH1 0x60 DUP4 ADD MLOAD DUP5 DUP3 SUB PUSH1 0x60 DUP7 ADD MSTORE PUSH2 0x1AD8 DUP3 DUP3 PUSH2 0x1968 JUMP JUMPDEST SWAP2 POP POP PUSH1 0x80 DUP4 ADD MLOAD DUP5 DUP3 SUB PUSH1 0x80 DUP7 ADD MSTORE PUSH2 0x1AF2 DUP3 DUP3 PUSH2 0x1968 JUMP JUMPDEST SWAP2 POP POP DUP1 SWAP2 POP POP SWAP3 SWAP2 POP POP JUMP JUMPDEST PUSH1 0x0 PUSH1 0x20 DUP3 ADD SWAP1 POP DUP2 DUP2 SUB PUSH1 0x0 DUP4 ADD MSTORE PUSH2 0x1B19 DUP2 DUP5 PUSH2 0x1A6D JUMP JUMPDEST SWAP1 POP SWAP3 SWAP2 POP POP JUMP JUMPDEST PUSH1 0x0 PUSH1 0xA0 DUP4 ADD PUSH1 0x0 DUP4 ADD MLOAD DUP5 DUP3 SUB PUSH1 0x0 DUP7 ADD MSTORE PUSH2 0x1B3E DUP3 DUP3 PUSH2 0x1968 JUMP JUMPDEST SWAP2 POP POP PUSH1 0x20 DUP4 ADD MLOAD DUP5 DUP3 SUB PUSH1 0x20 DUP7 ADD MSTORE PUSH2 0x1B58 DUP3 DUP3 PUSH2 0x1968 JUMP JUMPDEST SWAP2 POP POP PUSH1 0x40 DUP4 ADD MLOAD PUSH2 0x1B6D PUSH1 0x40 DUP7 ADD DUP3 PUSH2 0x1902 JUMP JUMPDEST POP PUSH1 0x60 DUP4 ADD MLOAD PUSH2 0x1B80 PUSH1 0x60 DUP7 ADD DUP3 PUSH2 0x1902 JUMP JUMPDEST POP PUSH1 0x80 DUP4 ADD MLOAD DUP5 DUP3 SUB PUSH1 0x80 DUP7 ADD MSTORE PUSH2 0x1B98 DUP3 DUP3 PUSH2 0x1968 JUMP JUMPDEST SWAP2 POP POP DUP1 SWAP2 POP POP SWAP3 SWAP2 POP POP JUMP JUMPDEST PUSH1 0x0 PUSH1 0x20 DUP3 ADD SWAP1 POP DUP2 DUP2 SUB PUSH1 0x0 DUP4 ADD MSTORE PUSH2 0x1BBF DUP2 DUP5 PUSH2 0x1B21 JUMP JUMPDEST SWAP1 POP SWAP3 SWAP2 POP POP JUMP JUMPDEST PUSH2 0x1BD0 DUP2 PUSH2 0x189F JUMP JUMPDEST DUP3 MSTORE POP POP JUMP JUMPDEST PUSH1 0x0 PUSH1 0x20 DUP3 ADD SWAP1 POP PUSH2 0x1BEB PUSH1 0x0 DUP4 ADD DUP5 PUSH2 0x1BC7 JUMP JUMPDEST SWAP3 SWAP2 POP POP JUMP JUMPDEST PUSH1 0x0 PUSH20 0xFFFFFFFFFFFFFFFFFFFFFFFFFFFFFFFFFFFFFFFF DUP3 AND SWAP1 POP SWAP2 SWAP1 POP JUMP JUMPDEST PUSH1 0x0 PUSH2 0x1C1C DUP3 PUSH2 0x1BF1 JUMP JUMPDEST SWAP1 POP SWAP2 SWAP1 POP JUMP JUMPDEST PUSH2 0x1C2C DUP2 PUSH2 0x1C11 JUMP JUMPDEST DUP3 MSTORE POP POP JUMP JUMPDEST PUSH1 0x0 PUSH1 0x20 DUP3 ADD SWAP1 POP PUSH2 0x1C47 PUSH1 0x0 DUP4 ADD DUP5 PUSH2 0x1C23 JUMP JUMPDEST SWAP3 SWAP2 POP POP JUMP JUMPDEST PUSH1 0x0 DUP1 REVERT JUMPDEST PUSH32 0x4E487B7100000000000000000000000000000000000000000000000000000000 PUSH1 0x0 MSTORE PUSH1 0x41 PUSH1 0x4 MSTORE PUSH1 0x24 PUSH1 0x0 REVERT JUMPDEST PUSH2 0x1C8A DUP3 PUSH2 0x1957 JUMP JUMPDEST DUP2 ADD DUP2 DUP2 LT PUSH8 0xFFFFFFFFFFFFFFFF DUP3 GT OR ISZERO PUSH2 0x1CA9 JUMPI PUSH2 0x1CA8 PUSH2 0x1C52 JUMP JUMPDEST JUMPDEST DUP1 PUSH1 0x40 MSTORE POP POP POP JUMP JUMPDEST PUSH1 0x0 PUSH2 0x1CBC PUSH2 0x188B JUMP JUMPDEST SWAP1 POP PUSH2 0x1CC8 DUP3 DUP3 PUSH2 0x1C81 JUMP JUMPDEST SWAP2 SWAP1 POP JUMP JUMPDEST PUSH1 0x0 DUP1 REVERT JUMPDEST PUSH1 0x0 DUP1 REVERT JUMPDEST PUSH1 0x0 DUP1 REVERT JUMPDEST PUSH1 0x0 PUSH8 0xFFFFFFFFFFFFFFFF DUP3 GT ISZERO PUSH2 0x1CF7 JUMPI PUSH2 0x1CF6 PUSH2 0x1C52 JUMP JUMPDEST JUMPDEST PUSH2 0x1D00 DUP3 PUSH2 0x1957 JUMP JUMPDEST SWAP1 POP PUSH1 0x20 DUP2 ADD SWAP1 POP SWAP2 SWAP1 POP JUMP JUMPDEST DUP3 DUP2 DUP4 CALLDATACOPY PUSH1 0x0 DUP4 DUP4 ADD MSTORE POP POP POP JUMP JUMPDEST PUSH1 0x0 PUSH2 0x1D2F PUSH2 0x1D2A DUP5 PUSH2 0x1CDC JUMP JUMPDEST PUSH2 0x1CB2 JUMP JUMPDEST SWAP1 POP DUP3 DUP2 MSTORE PUSH1 0x20 DUP2 ADD DUP5 DUP5 DUP5 ADD GT ISZERO PUSH2 0x1D4B JUMPI PUSH2 0x1D4A PUSH2 0x1CD7 JUMP JUMPDEST JUMPDEST PUSH2 0x1D56 DUP5 DUP3 DUP6 PUSH2 0x1D0D JUMP JUMPDEST POP SWAP4 SWAP3 POP POP POP JUMP JUMPDEST PUSH1 0x0 DUP3 PUSH1 0x1F DUP4 ADD SLT PUSH2 0x1D73 JUMPI PUSH2 0x1D72 PUSH2 0x1CD2 JUMP JUMPDEST JUMPDEST DUP2 CALLDATALOAD PUSH2 0x1D83 DUP5 DUP3 PUSH1 0x20 DUP7 ADD PUSH2 0x1D1C JUMP JUMPDEST SWAP2 POP POP SWAP3 SWAP2 POP POP JUMP JUMPDEST PUSH1 0x0 PUSH1 0xA0 DUP3 DUP5 SUB SLT ISZERO PUSH2 0x1DA2 JUMPI PUSH2 0x1DA1 PUSH2 0x1C4D JUMP JUMPDEST JUMPDEST PUSH2 0x1DAC PUSH1 0xA0 PUSH2 0x1CB2 JUMP JUMPDEST SWAP1 POP PUSH1 0x0 DUP3 ADD CALLDATALOAD PUSH8 0xFFFFFFFFFFFFFFFF DUP2 GT ISZERO PUSH2 0x1DCC JUMPI PUSH2 0x1DCB PUSH2 0x1CCD JUMP JUMPDEST JUMPDEST PUSH2 0x1DD8 DUP5 DUP3 DUP6 ADD PUSH2 0x1D5E JUMP JUMPDEST PUSH1 0x0 DUP4 ADD MSTORE POP PUSH1 0x20 DUP3 ADD CALLDATALOAD PUSH8 0xFFFFFFFFFFFFFFFF DUP2 GT ISZERO PUSH2 0x1DFC JUMPI PUSH2 0x1DFB PUSH2 0x1CCD JUMP JUMPDEST JUMPDEST PUSH2 0x1E08 DUP5 DUP3 DUP6 ADD PUSH2 0x1D5E JUMP JUMPDEST PUSH1 0x20 DUP4 ADD MSTORE POP PUSH1 0x40 DUP3 ADD CALLDATALOAD PUSH8 0xFFFFFFFFFFFFFFFF DUP2 GT ISZERO PUSH2 0x1E2C JUMPI PUSH2 0x1E2B PUSH2 0x1CCD JUMP JUMPDEST JUMPDEST PUSH2 0x1E38 DUP5 DUP3 DUP6 ADD PUSH2 0x1D5E JUMP JUMPDEST PUSH1 0x40 DUP4 ADD MSTORE POP PUSH1 0x60 DUP3 ADD CALLDATALOAD PUSH8 0xFFFFFFFFFFFFFFFF DUP2 GT ISZERO PUSH2 0x1E5C JUMPI PUSH2 0x1E5B PUSH2 0x1CCD JUMP JUMPDEST JUMPDEST PUSH2 0x1E68 DUP5 DUP3 DUP6 ADD PUSH2 0x1D5E JUMP JUMPDEST PUSH1 0x60 DUP4 ADD MSTORE POP PUSH1 0x80 DUP3 ADD CALLDATALOAD PUSH8 0xFFFFFFFFFFFFFFFF DUP2 GT ISZERO PUSH2 0x1E8C JUMPI PUSH2 0x1E8B PUSH2 0x1CCD JUMP JUMPDEST JUMPDEST PUSH2 0x1E98 DUP5 DUP3 DUP6 ADD PUSH2 0x1D5E JUMP JUMPDEST PUSH1 0x80 DUP4 ADD MSTORE POP SWAP3 SWAP2 POP POP JUMP JUMPDEST PUSH1 0x0 PUSH1 0xA0 DUP3 DUP5 SUB SLT ISZERO PUSH2 0x1EBA JUMPI PUSH2 0x1EB9 PUSH2 0x1C4D JUMP JUMPDEST JUMPDEST PUSH2 0x1EC4 PUSH1 0xA0 PUSH2 0x1CB2 JUMP JUMPDEST SWAP1 POP PUSH1 0x0 DUP3 ADD CALLDATALOAD PUSH8 0xFFFFFFFFFFFFFFFF DUP2 GT ISZERO PUSH2 0x1EE4 JUMPI PUSH2 0x1EE3 PUSH2 0x1CCD JUMP JUMPDEST JUMPDEST PUSH2 0x1EF0 DUP5 DUP3 DUP6 ADD PUSH2 0x1D5E JUMP JUMPDEST PUSH1 0x0 DUP4 ADD MSTORE POP PUSH1 0x20 DUP3 ADD CALLDATALOAD PUSH8 0xFFFFFFFFFFFFFFFF DUP2 GT ISZERO PUSH2 0x1F14 JUMPI PUSH2 0x1F13 PUSH2 0x1CCD JUMP JUMPDEST JUMPDEST PUSH2 0x1F20 DUP5 DUP3 DUP6 ADD PUSH2 0x1D5E JUMP JUMPDEST PUSH1 0x20 DUP4 ADD MSTORE POP PUSH1 0x40 PUSH2 0x1F34 DUP5 DUP3 DUP6 ADD PUSH2 0x18C0 JUMP JUMPDEST PUSH1 0x40 DUP4 ADD MSTORE POP PUSH1 0x60 PUSH2 0x1F48 DUP5 DUP3 DUP6 ADD PUSH2 0x18C0 JUMP JUMPDEST PUSH1 0x60 DUP4 ADD MSTORE POP PUSH1 0x80 DUP3 ADD CALLDATALOAD PUSH8 0xFFFFFFFFFFFFFFFF DUP2 GT ISZERO PUSH2 0x1F6C JUMPI PUSH2 0x1F6B PUSH2 0x1CCD JUMP JUMPDEST JUMPDEST PUSH2 0x1F78 DUP5 DUP3 DUP6 ADD PUSH2 0x1D5E JUMP JUMPDEST PUSH1 0x80 DUP4 ADD MSTORE POP SWAP3 SWAP2 POP POP JUMP JUMPDEST PUSH1 0x0 PUSH1 0xE0 DUP3 DUP5 SUB SLT ISZERO PUSH2 0x1F9A JUMPI PUSH2 0x1F99 PUSH2 0x1C4D JUMP JUMPDEST JUMPDEST PUSH2 0x1FA4 PUSH1 0xE0 PUSH2 0x1CB2 JUMP JUMPDEST SWAP1 POP PUSH1 0x0 PUSH2 0x1FB4 DUP5 DUP3 DUP6 ADD PUSH2 0x18C0 JUMP JUMPDEST PUSH1 0x0 DUP4 ADD MSTORE POP PUSH1 0x20 PUSH2 0x1FC8 DUP5 DUP3 DUP6 ADD PUSH2 0x18C0 JUMP JUMPDEST PUSH1 0x20 DUP4 ADD MSTORE POP PUSH1 0x40 PUSH2 0x1FDC DUP5 DUP3 DUP6 ADD PUSH2 0x18C0 JUMP JUMPDEST PUSH1 0x40 DUP4 ADD MSTORE POP PUSH1 0x60 DUP3 ADD CALLDATALOAD PUSH8 0xFFFFFFFFFFFFFFFF DUP2 GT ISZERO PUSH2 0x2000 JUMPI PUSH2 0x1FFF PUSH2 0x1CCD JUMP JUMPDEST JUMPDEST PUSH2 0x200C DUP5 DUP3 DUP6 ADD PUSH2 0x1D5E JUMP JUMPDEST PUSH1 0x60 DUP4 ADD MSTORE POP PUSH1 0x80 DUP3 ADD CALLDATALOAD PUSH8 0xFFFFFFFFFFFFFFFF DUP2 GT ISZERO PUSH2 0x2030 JUMPI PUSH2 0x202F PUSH2 0x1CCD JUMP JUMPDEST JUMPDEST PUSH2 0x203C DUP5 DUP3 DUP6 ADD PUSH2 0x1D5E JUMP JUMPDEST PUSH1 0x80 DUP4 ADD MSTORE POP PUSH1 0xA0 DUP3 ADD CALLDATALOAD PUSH8 0xFFFFFFFFFFFFFFFF DUP2 GT ISZERO PUSH2 0x2060 JUMPI PUSH2 0x205F PUSH2 0x1CCD JUMP JUMPDEST JUMPDEST PUSH2 0x206C DUP5 DUP3 DUP6 ADD PUSH2 0x1D5E JUMP JUMPDEST PUSH1 0xA0 DUP4 ADD MSTORE POP PUSH1 0xC0 PUSH2 0x2080 DUP5 DUP3 DUP6 ADD PUSH2 0x18C0 JUMP JUMPDEST PUSH1 0xC0 DUP4 ADD MSTORE POP SWAP3 SWAP2 POP POP JUMP JUMPDEST PUSH1 0x0 DUP1 PUSH1 0x0 PUSH1 0x60 DUP5 DUP7 SUB SLT ISZERO PUSH2 0x20A5 JUMPI PUSH2 0x20A4 PUSH2 0x1895 JUMP JUMPDEST JUMPDEST PUSH1 0x0 DUP5 ADD CALLDATALOAD PUSH8 0xFFFFFFFFFFFFFFFF DUP2 GT ISZERO PUSH2 0x20C3 JUMPI PUSH2 0x20C2 PUSH2 0x189A JUMP JUMPDEST JUMPDEST PUSH2 0x20CF DUP7 DUP3 DUP8 ADD PUSH2 0x1D8C JUMP JUMPDEST SWAP4 POP POP PUSH1 0x20 DUP5 ADD CALLDATALOAD PUSH8 0xFFFFFFFFFFFFFFFF DUP2 GT ISZERO PUSH2 0x20F0 JUMPI PUSH2 0x20EF PUSH2 0x189A JUMP JUMPDEST JUMPDEST PUSH2 0x20FC DUP7 DUP3 DUP8 ADD PUSH2 0x1EA4 JUMP JUMPDEST SWAP3 POP POP PUSH1 0x40 DUP5 ADD CALLDATALOAD PUSH8 0xFFFFFFFFFFFFFFFF DUP2 GT ISZERO PUSH2 0x211D JUMPI PUSH2 0x211C PUSH2 0x189A JUMP JUMPDEST JUMPDEST PUSH2 0x2129 DUP7 DUP3 DUP8 ADD PUSH2 0x1F84 JUMP JUMPDEST SWAP2 POP POP SWAP3 POP SWAP3 POP SWAP3 JUMP JUMPDEST PUSH1 0x0 DUP1 PUSH1 0x40 DUP4 DUP6 SUB SLT ISZERO PUSH2 0x214A JUMPI PUSH2 0x2149 PUSH2 0x1895 JUMP JUMPDEST JUMPDEST PUSH1 0x0 PUSH2 0x2158 DUP6 DUP3 DUP7 ADD PUSH2 0x18C0 JUMP JUMPDEST SWAP3 POP POP PUSH1 0x20 DUP4 ADD CALLDATALOAD PUSH8 0xFFFFFFFFFFFFFFFF DUP2 GT ISZERO PUSH2 0x2179 JUMPI PUSH2 0x2178 PUSH2 0x189A JUMP JUMPDEST JUMPDEST PUSH2 0x2185 DUP6 DUP3 DUP7 ADD PUSH2 0x1EA4 JUMP JUMPDEST SWAP2 POP POP SWAP3 POP SWAP3 SWAP1 POP JUMP JUMPDEST PUSH1 0x0 DUP1 PUSH1 0x40 DUP4 DUP6 SUB SLT ISZERO PUSH2 0x21A6 JUMPI PUSH2 0x21A5 PUSH2 0x1895 JUMP JUMPDEST JUMPDEST PUSH1 0x0 PUSH2 0x21B4 DUP6 DUP3 DUP7 ADD PUSH2 0x18C0 JUMP JUMPDEST SWAP3 POP POP PUSH1 0x20 DUP4 ADD CALLDATALOAD PUSH8 0xFFFFFFFFFFFFFFFF DUP2 GT ISZERO PUSH2 0x21D5 JUMPI PUSH2 0x21D4 PUSH2 0x189A JUMP JUMPDEST JUMPDEST PUSH2 0x21E1 DUP6 DUP3 DUP7 ADD PUSH2 0x1D8C JUMP JUMPDEST SWAP2 POP POP SWAP3 POP SWAP3 SWAP1 POP JUMP JUMPDEST PUSH1 0x0 DUP1 PUSH1 0x40 DUP4 DUP6 SUB SLT ISZERO PUSH2 0x2202 JUMPI PUSH2 0x2201 PUSH2 0x1895 JUMP JUMPDEST JUMPDEST PUSH1 0x0 PUSH2 0x2210 DUP6 DUP3 DUP7 ADD PUSH2 0x18C0 JUMP JUMPDEST SWAP3 POP POP PUSH1 0x20 DUP4 ADD CALLDATALOAD PUSH8 0xFFFFFFFFFFFFFFFF DUP2 GT ISZERO PUSH2 0x2231 JUMPI PUSH2 0x2230 PUSH2 0x189A JUMP JUMPDEST JUMPDEST PUSH2 0x223D DUP6 DUP3 DUP7 ADD PUSH2 0x1F84 JUMP JUMPDEST SWAP2 POP POP SWAP3 POP SWAP3 SWAP1 POP JUMP JUMPDEST PUSH1 0x0 PUSH1 0x60 DUP3 ADD SWAP1 POP DUP2 DUP2 SUB PUSH1 0x0 DUP4 ADD MSTORE PUSH2 0x2261 DUP2 DUP7 PUSH2 0x1A6D JUMP JUMPDEST SWAP1 POP DUP2 DUP2 SUB PUSH1 0x20 DUP4 ADD MSTORE PUSH2 0x2275 DUP2 DUP6 PUSH2 0x1B21 JUMP JUMPDEST SWAP1 POP DUP2 DUP2 SUB PUSH1 0x40 DUP4 ADD MSTORE PUSH2 0x2289 DUP2 DUP5 PUSH2 0x19A1 JUMP JUMPDEST SWAP1 POP SWAP5 SWAP4 POP POP POP POP JUMP JUMPDEST PUSH1 0x0 DUP3 DUP3 MSTORE PUSH1 0x20 DUP3 ADD SWAP1 POP SWAP3 SWAP2 POP POP JUMP JUMPDEST PUSH32 0x50726F706572747920646F6573206E6F74206578697374000000000000000000 PUSH1 0x0 DUP3 ADD MSTORE POP JUMP JUMPDEST PUSH1 0x0 PUSH2 0x22DA PUSH1 0x17 DUP4 PUSH2 0x2293 JUMP JUMPDEST SWAP2 POP PUSH2 0x22E5 DUP3 PUSH2 0x22A4 JUMP JUMPDEST PUSH1 0x20 DUP3 ADD SWAP1 POP SWAP2 SWAP1 POP JUMP JUMPDEST PUSH1 0x0 PUSH1 0x20 DUP3 ADD SWAP1 POP DUP2 DUP2 SUB PUSH1 0x0 DUP4 ADD MSTORE PUSH2 0x2309 DUP2 PUSH2 0x22CD JUMP JUMPDEST SWAP1 POP SWAP2 SWAP1 POP JUMP JUMPDEST PUSH32 0x4E487B7100000000000000000000000000000000000000000000000000000000 PUSH1 0x0 MSTORE PUSH1 0x32 PUSH1 0x4 MSTORE PUSH1 0x24 PUSH1 0x0 REVERT JUMPDEST PUSH32 0x4E487B7100000000000000000000000000000000000000000000000000000000 PUSH1 0x0 MSTORE PUSH1 0x22 PUSH1 0x4 MSTORE PUSH1 0x24 PUSH1 0x0 REVERT JUMPDEST PUSH1 0x0 PUSH1 0x2 DUP3 DIV SWAP1 POP PUSH1 0x1 DUP3 AND DUP1 PUSH2 0x2386 JUMPI PUSH1 0x7F DUP3 AND SWAP2 POP JUMPDEST PUSH1 0x20 DUP3 LT DUP2 SUB PUSH2 0x2399 JUMPI PUSH2 0x2398 PUSH2 0x233F JUMP JUMPDEST JUMPDEST POP SWAP2 SWAP1 POP JUMP JUMPDEST PUSH32 0x4F6E6C792074686520636F6E7472616374206F776E65722063616E2063616C6C PUSH1 0x0 DUP3 ADD MSTORE PUSH32 0x20746869732066756E6374696F6E000000000000000000000000000000000000 PUSH1 0x20 DUP3 ADD MSTORE POP JUMP JUMPDEST PUSH1 0x0 PUSH2 0x23FB PUSH1 0x2E DUP4 PUSH2 0x2293 JUMP JUMPDEST SWAP2 POP PUSH2 0x2406 DUP3 PUSH2 0x239F JUMP JUMPDEST PUSH1 0x40 DUP3 ADD SWAP1 POP SWAP2 SWAP1 POP JUMP JUMPDEST PUSH1 0x0 PUSH1 0x20 DUP3 ADD SWAP1 POP DUP2 DUP2 SUB PUSH1 0x0 DUP4 ADD MSTORE PUSH2 0x242A DUP2 PUSH2 0x23EE JUMP JUMPDEST SWAP1 POP SWAP2 SWAP1 POP JUMP JUMPDEST PUSH1 0x0 DUP2 SWAP1 POP DUP2 PUSH1 0x0 MSTORE PUSH1 0x20 PUSH1 0x0 KECCAK256 SWAP1 POP SWAP2 SWAP1 POP JUMP JUMPDEST PUSH1 0x0 PUSH1 0x20 PUSH1 0x1F DUP4 ADD DIV SWAP1 POP SWAP2 SWAP1 POP JUMP JUMPDEST PUSH1 0x0 DUP3 DUP3 SHL SWAP1 POP SWAP3 SWAP2 POP POP JUMP JUMPDEST PUSH1 0x0 PUSH1 0x8 DUP4 MUL PUSH2 0x2493 PUSH32 0xFFFFFFFFFFFFFFFFFFFFFFFFFFFFFFFFFFFFFFFFFFFFFFFFFFFFFFFFFFFFFFFF DUP3 PUSH2 0x2456 JUMP JUMPDEST PUSH2 0x249D DUP7 DUP4 PUSH2 0x2456 JUMP JUMPDEST SWAP6 POP DUP1 NOT DUP5 AND SWAP4 POP DUP1 DUP7 AND DUP5 OR SWAP3 POP POP POP SWAP4 SWAP3 POP POP POP JUMP JUMPDEST PUSH1 0x0 DUP2 SWAP1 POP SWAP2 SWAP1 POP JUMP JUMPDEST PUSH1 0x0 PUSH2 0x24DA PUSH2 0x24D5 PUSH2 0x24D0 DUP5 PUSH2 0x189F JUMP JUMPDEST PUSH2 0x24B5 JUMP JUMPDEST PUSH2 0x189F JUMP JUMPDEST SWAP1 POP SWAP2 SWAP1 POP JUMP JUMPDEST PUSH1 0x0 DUP2 SWAP1 POP SWAP2 SWAP1 POP JUMP JUMPDEST PUSH2 0x24F4 DUP4 PUSH2 0x24BF JUMP JUMPDEST PUSH2 0x2508 PUSH2 0x2500 DUP3 PUSH2 0x24E1 JUMP JUMPDEST DUP5 DUP5 SLOAD PUSH2 0x2463 JUMP JUMPDEST DUP3 SSTORE POP POP POP POP JUMP JUMPDEST PUSH1 0x0 SWAP1 JUMP JUMPDEST PUSH2 0x251D PUSH2 0x2510 JUMP JUMPDEST PUSH2 0x2528 DUP2 DUP5 DUP5 PUSH2 0x24EB JUMP JUMPDEST POP POP POP JUMP JUMPDEST JUMPDEST DUP2 DUP2 LT ISZERO PUSH2 0x254C JUMPI PUSH2 0x2541 PUSH1 0x0 DUP3 PUSH2 0x2515 JUMP JUMPDEST PUSH1 0x1 DUP2 ADD SWAP1 POP PUSH2 0x252E JUMP JUMPDEST POP POP JUMP JUMPDEST PUSH1 0x1F DUP3 GT ISZERO PUSH2 0x2591 JUMPI PUSH2 0x2562 DUP2 PUSH2 0x2431 JUMP JUMPDEST PUSH2 0x256B DUP5 PUSH2 0x2446 JUMP JUMPDEST DUP2 ADD PUSH1 0x20 DUP6 LT ISZERO PUSH2 0x257A JUMPI DUP2 SWAP1 POP JUMPDEST PUSH2 0x258E PUSH2 0x2586 DUP6 PUSH2 0x2446 JUMP JUMPDEST DUP4 ADD DUP3 PUSH2 0x252D JUMP JUMPDEST POP POP JUMPDEST POP POP POP JUMP JUMPDEST PUSH1 0x0 DUP3 DUP3 SHR SWAP1 POP SWAP3 SWAP2 POP POP JUMP JUMPDEST PUSH1 0x0 PUSH2 0x25B4 PUSH1 0x0 NOT DUP5 PUSH1 0x8 MUL PUSH2 0x2596 JUMP JUMPDEST NOT DUP1 DUP4 AND SWAP2 POP POP SWAP3 SWAP2 POP POP JUMP JUMPDEST PUSH1 0x0 PUSH2 0x25CD DUP4 DUP4 PUSH2 0x25A3 JUMP JUMPDEST SWAP2 POP DUP3 PUSH1 0x2 MUL DUP3 OR SWAP1 POP SWAP3 SWAP2 POP POP JUMP JUMPDEST PUSH2 0x25E6 DUP3 PUSH2 0x1911 JUMP JUMPDEST PUSH8 0xFFFFFFFFFFFFFFFF DUP2 GT ISZERO PUSH2 0x25FF JUMPI PUSH2 0x25FE PUSH2 0x1C52 JUMP JUMPDEST JUMPDEST PUSH2 0x2609 DUP3 SLOAD PUSH2 0x236E JUMP JUMPDEST PUSH2 0x2614 DUP3 DUP3 DUP6 PUSH2 0x2550 JUMP JUMPDEST PUSH1 0x0 PUSH1 0x20 SWAP1 POP PUSH1 0x1F DUP4 GT PUSH1 0x1 DUP2 EQ PUSH2 0x2647 JUMPI PUSH1 0x0 DUP5 ISZERO PUSH2 0x2635 JUMPI DUP3 DUP8 ADD MLOAD SWAP1 POP JUMPDEST PUSH2 0x263F DUP6 DUP3 PUSH2 0x25C1 JUMP JUMPDEST DUP7 SSTORE POP PUSH2 0x26A7 JUMP JUMPDEST PUSH1 0x1F NOT DUP5 AND PUSH2 0x2655 DUP7 PUSH2 0x2431 JUMP JUMPDEST PUSH1 0x0 JUMPDEST DUP3 DUP2 LT ISZERO PUSH2 0x267D JUMPI DUP5 DUP10 ADD MLOAD DUP3 SSTORE PUSH1 0x1 DUP3 ADD SWAP2 POP PUSH1 0x20 DUP6 ADD SWAP5 POP PUSH1 0x20 DUP2 ADD SWAP1 POP PUSH2 0x2658 JUMP JUMPDEST DUP7 DUP4 LT ISZERO PUSH2 0x269A JUMPI DUP5 DUP10 ADD MLOAD PUSH2 0x2696 PUSH1 0x1F DUP10 AND DUP3 PUSH2 0x25A3 JUMP JUMPDEST DUP4 SSTORE POP JUMPDEST PUSH1 0x1 PUSH1 0x2 DUP9 MUL ADD DUP9 SSTORE POP POP POP JUMPDEST POP POP POP POP POP POP JUMP JUMPDEST PUSH32 0x4E487B7100000000000000000000000000000000000000000000000000000000 PUSH1 0x0 MSTORE PUSH1 0x11 PUSH1 0x4 MSTORE PUSH1 0x24 PUSH1 0x0 REVERT JUMPDEST PUSH1 0x0 PUSH2 0x26E9 DUP3 PUSH2 0x189F JUMP JUMPDEST SWAP2 POP PUSH2 0x26F4 DUP4 PUSH2 0x189F JUMP JUMPDEST SWAP3 POP DUP3 DUP3 SUB SWAP1 POP DUP2 DUP2 GT ISZERO PUSH2 0x270C JUMPI PUSH2 0x270B PUSH2 0x26AF JUMP JUMPDEST JUMPDEST SWAP3 SWAP2 POP POP JUMP JUMPDEST PUSH1 0x0 PUSH2 0x271D DUP3 PUSH2 0x1911 JUMP JUMPDEST PUSH2 0x2727 DUP2 DUP6 PUSH2 0x2293 JUMP JUMPDEST SWAP4 POP PUSH2 0x2737 DUP2 DUP6 PUSH1 0x20 DUP7 ADD PUSH2 0x192D JUMP JUMPDEST PUSH2 0x2740 DUP2 PUSH2 0x1957 JUMP JUMPDEST DUP5 ADD SWAP2 POP POP SWAP3 SWAP2 POP POP JUMP JUMPDEST PUSH1 0x0 PUSH1 0x40 DUP3 ADD SWAP1 POP DUP2 DUP2 SUB PUSH1 0x0 DUP4 ADD MSTORE PUSH2 0x2765 DUP2 DUP6 PUSH2 0x2712 JUMP JUMPDEST SWAP1 POP DUP2 DUP2 SUB PUSH1 0x20 DUP4 ADD MSTORE PUSH2 0x2779 DUP2 DUP5 PUSH2 0x2712 JUMP JUMPDEST SWAP1 POP SWAP4 SWAP3 POP POP POP JUMP INVALID LOG2 PUSH5 0x6970667358 0x22 SLT KECCAK256 GASLIMIT 0xEF SWAP16 0x29 PUSH15 0xA4A9A1E97EA7AC601FA4CB25FDFD1A PUSH25 0x13499A45EE16F6D96092F464736F6C63430008140033000000 "},"methodIdentifiers":{"addProperty((string,string,string,string,string),(string,string,uint256,uint256,string),(uint256,uint256,uint256,string,string,string,uint256))":"b013af85","getPropertyBasicInfo(uint256)":"2549b435","getPropertyCount()":"7326b901","getPropertyDetails(uint256)":"126dbe43","getPropertySaleInfo(uint256)":"327fe489","owner()":"8da5cb5b","properties(uint256)":"f7b10808","updatePropertyBasicInfo(uint256,(string,string,string,string,string))":"c63c5a25","updatePropertyDetails(uint256,(uint256,uint256,uint256,string,string,string,uint256))":"eed41e0c","updatePropertySaleInfo(uint256,(string,string,uint256,uint256,string))":"c06633fc"}}}}}