{
  "_format": "hh-sol-artifact-1",
  "contractName": "PropertyRecords",
  "sourceName": "contracts/propertyRecord.sol",
  "abi": [
    {
      "inputs": [],
      "stateMutability": "nonpayable",
      "type": "constructor"
    },
    {
      "anonymous": false,
      "inputs": [
        {
          "indexed": true,
          "internalType": "uint256",
          "name": "index",
          "type": "uint256"
        },
        {
          "indexed": false,
          "internalType": "string",
          "name": "accountNo",
          "type": "string"
        },
        {
          "indexed": false,
          "internalType": "string",
          "name": "ownerName",
          "type": "string"
        }
      ],
      "name": "PropertyAdded",
      "type": "event"
    },
    {
      "inputs": [
        {
          "components": [
            {
              "internalType": "string",
              "name": "accountNo",
              "type": "string"
            },
            {
              "internalType": "string",
              "name": "ownerName",
              "type": "string"
            },
            {
              "internalType": "string",
              "name": "images",
              "type": "string"
            },
            {
              "internalType": "string",
              "name": "propertyAddress",
              "type": "string"
            },
            {
              "internalType": "string",
              "name": "city",
              "type": "string"
            }
          ],
          "internalType": "struct PropertyRecords.PropertyBasicInfo",
          "name": "_basicInfo",
          "type": "tuple"
        },
        {
          "components": [
            {
              "internalType": "string",
              "name": "grantor",
              "type": "string"
            },
            {
              "internalType": "string",
              "name": "grantee",
              "type": "string"
            },
            {
              "internalType": "uint256",
              "name": "saleDate",
              "type": "uint256"
            },
            {
              "internalType": "uint256",
              "name": "salePrice",
              "type": "uint256"
            },
            {
              "internalType": "string",
              "name": "saleType",
              "type": "string"
            }
          ],
          "internalType": "struct PropertyRecords.PropertySaleInfo",
          "name": "_saleInfo",
          "type": "tuple"
        },
        {
          "components": [
            {
              "internalType": "uint256",
              "name": "acres",
              "type": "uint256"
            },
            {
              "internalType": "uint256",
              "name": "assessedValue",
              "type": "uint256"
            },
            {
              "internalType": "uint256",
              "name": "heatedSqFt",
              "type": "uint256"
            },
            {
              "internalType": "string",
              "name": "subdivision",
              "type": "string"
            },
            {
              "internalType": "string",
              "name": "secTwpRng",
              "type": "string"
            },
            {
              "internalType": "string",
              "name": "legalDescr",
              "type": "string"
            },
            {
              "internalType": "uint256",
              "name": "landSqFt",
              "type": "uint256"
            }
          ],
          "internalType": "struct PropertyRecords.PropertyDetails",
          "name": "_details",
          "type": "tuple"
        }
      ],
      "name": "addProperty",
      "outputs": [],
      "stateMutability": "nonpayable",
      "type": "function"
    },
    {
      "inputs": [
        {
          "internalType": "uint256",
          "name": "index",
          "type": "uint256"
        }
      ],
      "name": "getPropertyBasicInfo",
      "outputs": [
        {
          "components": [
            {
              "internalType": "string",
              "name": "accountNo",
              "type": "string"
            },
            {
              "internalType": "string",
              "name": "ownerName",
              "type": "string"
            },
            {
              "internalType": "string",
              "name": "images",
              "type": "string"
            },
            {
              "internalType": "string",
              "name": "propertyAddress",
              "type": "string"
            },
            {
              "internalType": "string",
              "name": "city",
              "type": "string"
            }
          ],
          "internalType": "struct PropertyRecords.PropertyBasicInfo",
          "name": "",
          "type": "tuple"
        }
      ],
      "stateMutability": "view",
      "type": "function"
    },
    {
      "inputs": [],
      "name": "getPropertyCount",
      "outputs": [
        {
          "internalType": "uint256",
          "name": "",
          "type": "uint256"
        }
      ],
      "stateMutability": "view",
      "type": "function"
    },
    {
      "inputs": [
        {
          "internalType": "uint256",
          "name": "index",
          "type": "uint256"
        }
      ],
      "name": "getPropertyDetails",
      "outputs": [
        {
          "components": [
            {
              "internalType": "uint256",
              "name": "acres",
              "type": "uint256"
            },
            {
              "internalType": "uint256",
              "name": "assessedValue",
              "type": "uint256"
            },
            {
              "internalType": "uint256",
              "name": "heatedSqFt",
              "type": "uint256"
            },
            {
              "internalType": "string",
              "name": "subdivision",
              "type": "string"
            },
            {
              "internalType": "string",
              "name": "secTwpRng",
              "type": "string"
            },
            {
              "internalType": "string",
              "name": "legalDescr",
              "type": "string"
            },
            {
              "internalType": "uint256",
              "name": "landSqFt",
              "type": "uint256"
            }
          ],
          "internalType": "struct PropertyRecords.PropertyDetails",
          "name": "",
          "type": "tuple"
        }
      ],
      "stateMutability": "view",
      "type": "function"
    },
    {
      "inputs": [
        {
          "internalType": "uint256",
          "name": "index",
          "type": "uint256"
        }
      ],
      "name": "getPropertySaleInfo",
      "outputs": [
        {
          "components": [
            {
              "internalType": "string",
              "name": "grantor",
              "type": "string"
            },
            {
              "internalType": "string",
              "name": "grantee",
              "type": "string"
            },
            {
              "internalType": "uint256",
              "name": "saleDate",
              "type": "uint256"
            },
            {
              "internalType": "uint256",
              "name": "salePrice",
              "type": "uint256"
            },
            {
              "internalType": "string",
              "name": "saleType",
              "type": "string"
            }
          ],
          "internalType": "struct PropertyRecords.PropertySaleInfo",
          "name": "",
          "type": "tuple"
        }
      ],
      "stateMutability": "view",
      "type": "function"
    },
    {
      "inputs": [],
      "name": "owner",
      "outputs": [
        {
          "internalType": "address",
          "name": "",
          "type": "address"
        }
      ],
      "stateMutability": "view",
      "type": "function"
    },
    {
      "inputs": [
        {
          "internalType": "uint256",
          "name": "",
          "type": "uint256"
        }
      ],
      "name": "properties",
      "outputs": [
        {
          "components": [
            {
              "internalType": "string",
              "name": "accountNo",
              "type": "string"
            },
            {
              "internalType": "string",
              "name": "ownerName",
              "type": "string"
            },
            {
              "internalType": "string",
              "name": "images",
              "type": "string"
            },
            {
              "internalType": "string",
              "name": "propertyAddress",
              "type": "string"
            },
            {
              "internalType": "string",
              "name": "city",
              "type": "string"
            }
          ],
          "internalType": "struct PropertyRecords.PropertyBasicInfo",
          "name": "basicInfo",
          "type": "tuple"
        },
        {
          "components": [
            {
              "internalType": "string",
              "name": "grantor",
              "type": "string"
            },
            {
              "internalType": "string",
              "name": "grantee",
              "type": "string"
            },
            {
              "internalType": "uint256",
              "name": "saleDate",
              "type": "uint256"
            },
            {
              "internalType": "uint256",
              "name": "salePrice",
              "type": "uint256"
            },
            {
              "internalType": "string",
              "name": "saleType",
              "type": "string"
            }
          ],
          "internalType": "struct PropertyRecords.PropertySaleInfo",
          "name": "saleInfo",
          "type": "tuple"
        },
        {
          "components": [
            {
              "internalType": "uint256",
              "name": "acres",
              "type": "uint256"
            },
            {
              "internalType": "uint256",
              "name": "assessedValue",
              "type": "uint256"
            },
            {
              "internalType": "uint256",
              "name": "heatedSqFt",
              "type": "uint256"
            },
            {
              "internalType": "string",
              "name": "subdivision",
              "type": "string"
            },
            {
              "internalType": "string",
              "name": "secTwpRng",
              "type": "string"
            },
            {
              "internalType": "string",
              "name": "legalDescr",
              "type": "string"
            },
            {
              "internalType": "uint256",
              "name": "landSqFt",
              "type": "uint256"
            }
          ],
          "internalType": "struct PropertyRecords.PropertyDetails",
          "name": "details",
          "type": "tuple"
        }
      ],
      "stateMutability": "view",
      "type": "function"
    },
    {
      "inputs": [
        {
          "internalType": "uint256",
          "name": "index",
          "type": "uint256"
        },
        {
          "components": [
            {
              "internalType": "string",
              "name": "accountNo",
              "type": "string"
            },
            {
              "internalType": "string",
              "name": "ownerName",
              "type": "string"
            },
            {
              "internalType": "string",
              "name": "images",
              "type": "string"
            },
            {
              "internalType": "string",
              "name": "propertyAddress",
              "type": "string"
            },
            {
              "internalType": "string",
              "name": "city",
              "type": "string"
            }
          ],
          "internalType": "struct PropertyRecords.PropertyBasicInfo",
          "name": "_basicInfo",
          "type": "tuple"
        }
      ],
      "name": "updatePropertyBasicInfo",
      "outputs": [],
      "stateMutability": "nonpayable",
      "type": "function"
    },
    {
      "inputs": [
        {
          "internalType": "uint256",
          "name": "index",
          "type": "uint256"
        },
        {
          "components": [
            {
              "internalType": "uint256",
              "name": "acres",
              "type": "uint256"
            },
            {
              "internalType": "uint256",
              "name": "assessedValue",
              "type": "uint256"
            },
            {
              "internalType": "uint256",
              "name": "heatedSqFt",
              "type": "uint256"
            },
            {
              "internalType": "string",
              "name": "subdivision",
              "type": "string"
            },
            {
              "internalType": "string",
              "name": "secTwpRng",
              "type": "string"
            },
            {
              "internalType": "string",
              "name": "legalDescr",
              "type": "string"
            },
            {
              "internalType": "uint256",
              "name": "landSqFt",
              "type": "uint256"
            }
          ],
          "internalType": "struct PropertyRecords.PropertyDetails",
          "name": "_details",
          "type": "tuple"
        }
      ],
      "name": "updatePropertyDetails",
      "outputs": [],
      "stateMutability": "nonpayable",
      "type": "function"
    },
    {
      "inputs": [
        {
          "internalType": "uint256",
          "name": "index",
          "type": "uint256"
        },
        {
          "components": [
            {
              "internalType": "string",
              "name": "grantor",
              "type": "string"
            },
            {
              "internalType": "string",
              "name": "grantee",
              "type": "string"
            },
            {
              "internalType": "uint256",
              "name": "saleDate",
              "type": "uint256"
            },
            {
              "internalType": "uint256",
              "name": "salePrice",
              "type": "uint256"
            },
            {
              "internalType": "string",
              "name": "saleType",
              "type": "string"
            }
          ],
          "internalType": "struct PropertyRecords.PropertySaleInfo",
          "name": "_saleInfo",
          "type": "tuple"
        }
      ],
      "name": "updatePropertySaleInfo",
      "outputs": [],
      "stateMutability": "nonpayable",
      "type": "function"
    }
  ],
  "bytecode": "0x608060405234801561001057600080fd5b5033600160006101000a81548173ffffffffffffffffffffffffffffffffffffffff021916908373ffffffffffffffffffffffffffffffffffffffff1602179055506127b8806100616000396000f3fe608060405234801561001057600080fd5b506004361061009e5760003560e01c8063b013af8511610066578063b013af851461016f578063c06633fc1461018b578063c63c5a25146101a7578063eed41e0c146101c3578063f7b10808146101df5761009e565b8063126dbe43146100a35780632549b435146100d3578063327fe489146101035780637326b901146101335780638da5cb5b14610151575b600080fd5b6100bd60048036038101906100b891906118d5565b610211565b6040516100ca9190611a4b565b60405180910390f35b6100ed60048036038101906100e891906118d5565b610475565b6040516100fa9190611aff565b60405180910390f35b61011d600480360381019061011891906118d5565b6107d5565b60405161012a9190611ba5565b60405180910390f35b61013b610a25565b6040516101489190611bd6565b60405180910390f35b610159610a31565b6040516101669190611c32565b60405180910390f35b6101896004803603810190610184919061208c565b610a57565b005b6101a560048036038101906101a09190612133565b610cdc565b005b6101c160048036038101906101bc919061218f565b610e36565b005b6101dd60048036038101906101d891906121eb565b610fa8565b005b6101f960048036038101906101f491906118d5565b611116565b60405161020893929190612247565b60405180910390f35b6102196117f0565b6000805490508210610260576040517f08c379a0000000000000000000000000000000000000000000000000000000008152600401610257906122f0565b60405180910390fd5b6000828154811061027457610273612310565b5b9060005260206000209060110201600a016040518060e00160405290816000820154815260200160018201548152602001600282015481526020016003820180546102be9061236e565b80601f01602080910402602001604051908101604052809291908181526020018280546102ea9061236e565b80156103375780601f1061030c57610100808354040283529160200191610337565b820191906000526020600020905b81548152906001019060200180831161031a57829003601f168201915b505050505081526020016004820180546103509061236e565b80601f016020809104026020016040519081016040528092919081815260200182805461037c9061236e565b80156103c95780601f1061039e576101008083540402835291602001916103c9565b820191906000526020600020905b8154815290600101906020018083116103ac57829003601f168201915b505050505081526020016005820180546103e29061236e565b80601f016020809104026020016040519081016040528092919081815260200182805461040e9061236e565b801561045b5780601f106104305761010080835404028352916020019161045b565b820191906000526020600020905b81548152906001019060200180831161043e57829003601f168201915b505050505081526020016006820154815250509050919050565b61047d61182d565b60008054905082106104c4576040517f08c379a00000000000000000000000000000000000000000000000000000000081526004016104bb906122f0565b60405180910390fd5b600082815481106104d8576104d7612310565b5b90600052602060002090601102016000016040518060a00160405290816000820180546105049061236e565b80601f01602080910402602001604051908101604052809291908181526020018280546105309061236e565b801561057d5780601f106105525761010080835404028352916020019161057d565b820191906000526020600020905b81548152906001019060200180831161056057829003601f168201915b505050505081526020016001820180546105969061236e565b80601f01602080910402602001604051908101604052809291908181526020018280546105c29061236e565b801561060f5780601f106105e45761010080835404028352916020019161060f565b820191906000526020600020905b8154815290600101906020018083116105f257829003601f168201915b505050505081526020016002820180546106289061236e565b80601f01602080910402602001604051908101604052809291908181526020018280546106549061236e565b80156106a15780601f10610676576101008083540402835291602001916106a1565b820191906000526020600020905b81548152906001019060200180831161068457829003601f168201915b505050505081526020016003820180546106ba9061236e565b80601f01602080910402602001604051908101604052809291908181526020018280546106e69061236e565b80156107335780601f1061070857610100808354040283529160200191610733565b820191906000526020600020905b81548152906001019060200180831161071657829003601f168201915b5050505050815260200160048201805461074c9061236e565b80601f01602080910402602001604051908101604052809291908181526020018280546107789061236e565b80156107c55780601f1061079a576101008083540402835291602001916107c5565b820191906000526020600020905b8154815290600101906020018083116107a857829003601f168201915b5050505050815250509050919050565b6107dd61185c565b6000805490508210610824576040517f08c379a000000000000000000000000000000000000000000000000000000000815260040161081b906122f0565b60405180910390fd5b6000828154811061083857610837612310565b5b90600052602060002090601102016005016040518060a00160405290816000820180546108649061236e565b80601f01602080910402602001604051908101604052809291908181526020018280546108909061236e565b80156108dd5780601f106108b2576101008083540402835291602001916108dd565b820191906000526020600020905b8154815290600101906020018083116108c057829003601f168201915b505050505081526020016001820180546108f69061236e565b80601f01602080910402602001604051908101604052809291908181526020018280546109229061236e565b801561096f5780601f106109445761010080835404028352916020019161096f565b820191906000526020600020905b81548152906001019060200180831161095257829003601f168201915b50505050508152602001600282015481526020016003820154815260200160048201805461099c9061236e565b80601f01602080910402602001604051908101604052809291908181526020018280546109c89061236e565b8015610a155780601f106109ea57610100808354040283529160200191610a15565b820191906000526020600020905b8154815290600101906020018083116109f857829003601f168201915b5050505050815250509050919050565b60008080549050905090565b600160009054906101000a900473ffffffffffffffffffffffffffffffffffffffff1681565b600160009054906101000a900473ffffffffffffffffffffffffffffffffffffffff1673ffffffffffffffffffffffffffffffffffffffff163373ffffffffffffffffffffffffffffffffffffffff1614610ae7576040517f08c379a0000000000000000000000000000000000000000000000000000000008152600401610ade90612411565b60405180910390fd5b6000604051806060016040528085815260200184815260200183815250905060008190806001815401808255809150506001900390600052602060002090601102016000909190919091506000820151816000016000820151816000019081610b5091906125dd565b506020820151816001019081610b6691906125dd565b506040820151816002019081610b7c91906125dd565b506060820151816003019081610b9291906125dd565b506080820151816004019081610ba891906125dd565b5050506020820151816005016000820151816000019081610bc991906125dd565b506020820151816001019081610bdf91906125dd565b5060408201518160020155606082015181600301556080820151816004019081610c0991906125dd565b505050604082015181600a016000820151816000015560208201518160010155604082015181600201556060820151816003019081610c4891906125dd565b506080820151816004019081610c5e91906125dd565b5060a0820151816005019081610c7491906125dd565b5060c08201518160060155505050506001600080549050610c9591906126de565b7f3da4c9bfb35ec26c6d648c86e9eb4077c245397191cc803a547fa580e21ff2bb85600001518660200151604051610cce92919061274b565b60405180910390a250505050565b600160009054906101000a900473ffffffffffffffffffffffffffffffffffffffff1673ffffffffffffffffffffffffffffffffffffffff163373ffffffffffffffffffffffffffffffffffffffff1614610d6c576040517f08c379a0000000000000000000000000000000000000000000000000000000008152600401610d6390612411565b60405180910390fd5b6000805490508210610db3576040517f08c379a0000000000000000000000000000000000000000000000000000000008152600401610daa906122f0565b60405180910390fd5b8060008381548110610dc857610dc7612310565b5b90600052602060002090601102016005016000820151816000019081610dee91906125dd565b506020820151816001019081610e0491906125dd565b5060408201518160020155606082015181600301556080820151816004019081610e2e91906125dd565b509050505050565b600160009054906101000a900473ffffffffffffffffffffffffffffffffffffffff1673ffffffffffffffffffffffffffffffffffffffff163373ffffffffffffffffffffffffffffffffffffffff1614610ec6576040517f08c379a0000000000000000000000000000000000000000000000000000000008152600401610ebd90612411565b60405180910390fd5b6000805490508210610f0d576040517f08c379a0000000000000000000000000000000000000000000000000000000008152600401610f04906122f0565b60405180910390fd5b8060008381548110610f2257610f21612310565b5b90600052602060002090601102016000016000820151816000019081610f4891906125dd565b506020820151816001019081610f5e91906125dd565b506040820151816002019081610f7491906125dd565b506060820151816003019081610f8a91906125dd565b506080820151816004019081610fa091906125dd565b509050505050565b600160009054906101000a900473ffffffffffffffffffffffffffffffffffffffff1673ffffffffffffffffffffffffffffffffffffffff163373ffffffffffffffffffffffffffffffffffffffff1614611038576040517f08c379a000000000000000000000000000000000000000000000000000000000815260040161102f90612411565b60405180910390fd5b600080549050821061107f576040517f08c379a0000000000000000000000000000000000000000000000000000000008152600401611076906122f0565b60405180910390fd5b806000838154811061109457611093612310565b5b9060005260206000209060110201600a0160008201518160000155602082015181600101556040820151816002015560608201518160030190816110d891906125dd565b5060808201518160040190816110ee91906125dd565b5060a082015181600501908161110491906125dd565b5060c082015181600601559050505050565b6000818154811061112657600080fd5b9060005260206000209060110201600091509050806000016040518060a00160405290816000820180546111599061236e565b80601f01602080910402602001604051908101604052809291908181526020018280546111859061236e565b80156111d25780601f106111a7576101008083540402835291602001916111d2565b820191906000526020600020905b8154815290600101906020018083116111b557829003601f168201915b505050505081526020016001820180546111eb9061236e565b80601f01602080910402602001604051908101604052809291908181526020018280546112179061236e565b80156112645780601f1061123957610100808354040283529160200191611264565b820191906000526020600020905b81548152906001019060200180831161124757829003601f168201915b5050505050815260200160028201805461127d9061236e565b80601f01602080910402602001604051908101604052809291908181526020018280546112a99061236e565b80156112f65780601f106112cb576101008083540402835291602001916112f6565b820191906000526020600020905b8154815290600101906020018083116112d957829003601f168201915b5050505050815260200160038201805461130f9061236e565b80601f016020809104026020016040519081016040528092919081815260200182805461133b9061236e565b80156113885780601f1061135d57610100808354040283529160200191611388565b820191906000526020600020905b81548152906001019060200180831161136b57829003601f168201915b505050505081526020016004820180546113a19061236e565b80601f01602080910402602001604051908101604052809291908181526020018280546113cd9061236e565b801561141a5780601f106113ef5761010080835404028352916020019161141a565b820191906000526020600020905b8154815290600101906020018083116113fd57829003601f168201915b50505050508152505090806005016040518060a00160405290816000820180546114439061236e565b80601f016020809104026020016040519081016040528092919081815260200182805461146f9061236e565b80156114bc5780601f10611491576101008083540402835291602001916114bc565b820191906000526020600020905b81548152906001019060200180831161149f57829003601f168201915b505050505081526020016001820180546114d59061236e565b80601f01602080910402602001604051908101604052809291908181526020018280546115019061236e565b801561154e5780601f106115235761010080835404028352916020019161154e565b820191906000526020600020905b81548152906001019060200180831161153157829003601f168201915b50505050508152602001600282015481526020016003820154815260200160048201805461157b9061236e565b80601f01602080910402602001604051908101604052809291908181526020018280546115a79061236e565b80156115f45780601f106115c9576101008083540402835291602001916115f4565b820191906000526020600020905b8154815290600101906020018083116115d757829003601f168201915b5050505050815250509080600a016040518060e001604052908160008201548152602001600182015481526020016002820154815260200160038201805461163b9061236e565b80601f01602080910402602001604051908101604052809291908181526020018280546116679061236e565b80156116b45780601f10611689576101008083540402835291602001916116b4565b820191906000526020600020905b81548152906001019060200180831161169757829003601f168201915b505050505081526020016004820180546116cd9061236e565b80601f01602080910402602001604051908101604052809291908181526020018280546116f99061236e565b80156117465780601f1061171b57610100808354040283529160200191611746565b820191906000526020600020905b81548152906001019060200180831161172957829003601f168201915b5050505050815260200160058201805461175f9061236e565b80601f016020809104026020016040519081016040528092919081815260200182805461178b9061236e565b80156117d85780601f106117ad576101008083540402835291602001916117d8565b820191906000526020600020905b8154815290600101906020018083116117bb57829003601f168201915b50505050508152602001600682015481525050905083565b6040518060e00160405280600081526020016000815260200160008152602001606081526020016060815260200160608152602001600081525090565b6040518060a0016040528060608152602001606081526020016060815260200160608152602001606081525090565b6040518060a0016040528060608152602001606081526020016000815260200160008152602001606081525090565b6000604051905090565b600080fd5b600080fd5b6000819050919050565b6118b28161189f565b81146118bd57600080fd5b50565b6000813590506118cf816118a9565b92915050565b6000602082840312156118eb576118ea611895565b5b60006118f9848285016118c0565b91505092915050565b61190b8161189f565b82525050565b600081519050919050565b600082825260208201905092915050565b60005b8381101561194b578082015181840152602081019050611930565b60008484015250505050565b6000601f19601f8301169050919050565b600061197382611911565b61197d818561191c565b935061198d81856020860161192d565b61199681611957565b840191505092915050565b600060e0830160008301516119b96000860182611902565b5060208301516119cc6020860182611902565b5060408301516119df6040860182611902565b50606083015184820360608601526119f78282611968565b91505060808301518482036080860152611a118282611968565b91505060a083015184820360a0860152611a2b8282611968565b91505060c0830151611a4060c0860182611902565b508091505092915050565b60006020820190508181036000830152611a6581846119a1565b905092915050565b600060a0830160008301518482036000860152611a8a8282611968565b91505060208301518482036020860152611aa48282611968565b91505060408301518482036040860152611abe8282611968565b91505060608301518482036060860152611ad88282611968565b91505060808301518482036080860152611af28282611968565b9150508091505092915050565b60006020820190508181036000830152611b198184611a6d565b905092915050565b600060a0830160008301518482036000860152611b3e8282611968565b91505060208301518482036020860152611b588282611968565b9150506040830151611b6d6040860182611902565b506060830151611b806060860182611902565b5060808301518482036080860152611b988282611968565b9150508091505092915050565b60006020820190508181036000830152611bbf8184611b21565b905092915050565b611bd08161189f565b82525050565b6000602082019050611beb6000830184611bc7565b92915050565b600073ffffffffffffffffffffffffffffffffffffffff82169050919050565b6000611c1c82611bf1565b9050919050565b611c2c81611c11565b82525050565b6000602082019050611c476000830184611c23565b92915050565b600080fd5b7f4e487b7100000000000000000000000000000000000000000000000000000000600052604160045260246000fd5b611c8a82611957565b810181811067ffffffffffffffff82111715611ca957611ca8611c52565b5b80604052505050565b6000611cbc61188b565b9050611cc88282611c81565b919050565b600080fd5b600080fd5b600080fd5b600067ffffffffffffffff821115611cf757611cf6611c52565b5b611d0082611957565b9050602081019050919050565b82818337600083830152505050565b6000611d2f611d2a84611cdc565b611cb2565b905082815260208101848484011115611d4b57611d4a611cd7565b5b611d56848285611d0d565b509392505050565b600082601f830112611d7357611d72611cd2565b5b8135611d83848260208601611d1c565b91505092915050565b600060a08284031215611da257611da1611c4d565b5b611dac60a0611cb2565b9050600082013567ffffffffffffffff811115611dcc57611dcb611ccd565b5b611dd884828501611d5e565b600083015250602082013567ffffffffffffffff811115611dfc57611dfb611ccd565b5b611e0884828501611d5e565b602083015250604082013567ffffffffffffffff811115611e2c57611e2b611ccd565b5b611e3884828501611d5e565b604083015250606082013567ffffffffffffffff811115611e5c57611e5b611ccd565b5b611e6884828501611d5e565b606083015250608082013567ffffffffffffffff811115611e8c57611e8b611ccd565b5b611e9884828501611d5e565b60808301525092915050565b600060a08284031215611eba57611eb9611c4d565b5b611ec460a0611cb2565b9050600082013567ffffffffffffffff811115611ee457611ee3611ccd565b5b611ef084828501611d5e565b600083015250602082013567ffffffffffffffff811115611f1457611f13611ccd565b5b611f2084828501611d5e565b6020830152506040611f34848285016118c0565b6040830152506060611f48848285016118c0565b606083015250608082013567ffffffffffffffff811115611f6c57611f6b611ccd565b5b611f7884828501611d5e565b60808301525092915050565b600060e08284031215611f9a57611f99611c4d565b5b611fa460e0611cb2565b90506000611fb4848285016118c0565b6000830152506020611fc8848285016118c0565b6020830152506040611fdc848285016118c0565b604083015250606082013567ffffffffffffffff81111561200057611fff611ccd565b5b61200c84828501611d5e565b606083015250608082013567ffffffffffffffff8111156120305761202f611ccd565b5b61203c84828501611d5e565b60808301525060a082013567ffffffffffffffff8111156120605761205f611ccd565b5b61206c84828501611d5e565b60a08301525060c0612080848285016118c0565b60c08301525092915050565b6000806000606084860312156120a5576120a4611895565b5b600084013567ffffffffffffffff8111156120c3576120c261189a565b5b6120cf86828701611d8c565b935050602084013567ffffffffffffffff8111156120f0576120ef61189a565b5b6120fc86828701611ea4565b925050604084013567ffffffffffffffff81111561211d5761211c61189a565b5b61212986828701611f84565b9150509250925092565b6000806040838503121561214a57612149611895565b5b6000612158858286016118c0565b925050602083013567ffffffffffffffff8111156121795761217861189a565b5b61218585828601611ea4565b9150509250929050565b600080604083850312156121a6576121a5611895565b5b60006121b4858286016118c0565b925050602083013567ffffffffffffffff8111156121d5576121d461189a565b5b6121e185828601611d8c565b9150509250929050565b6000806040838503121561220257612201611895565b5b6000612210858286016118c0565b925050602083013567ffffffffffffffff8111156122315761223061189a565b5b61223d85828601611f84565b9150509250929050565b600060608201905081810360008301526122618186611a6d565b905081810360208301526122758185611b21565b9050818103604083015261228981846119a1565b9050949350505050565b600082825260208201905092915050565b7f50726f706572747920646f6573206e6f74206578697374000000000000000000600082015250565b60006122da601783612293565b91506122e5826122a4565b602082019050919050565b60006020820190508181036000830152612309816122cd565b9050919050565b7f4e487b7100000000000000000000000000000000000000000000000000000000600052603260045260246000fd5b7f4e487b7100000000000000000000000000000000000000000000000000000000600052602260045260246000fd5b6000600282049050600182168061238657607f821691505b6020821081036123995761239861233f565b5b50919050565b7f4f6e6c792074686520636f6e7472616374206f776e65722063616e2063616c6c60008201527f20746869732066756e6374696f6e000000000000000000000000000000000000602082015250565b60006123fb602e83612293565b91506124068261239f565b604082019050919050565b6000602082019050818103600083015261242a816123ee565b9050919050565b60008190508160005260206000209050919050565b60006020601f8301049050919050565b600082821b905092915050565b6000600883026124937fffffffffffffffffffffffffffffffffffffffffffffffffffffffffffffffff82612456565b61249d8683612456565b95508019841693508086168417925050509392505050565b6000819050919050565b60006124da6124d56124d08461189f565b6124b5565b61189f565b9050919050565b6000819050919050565b6124f4836124bf565b612508612500826124e1565b848454612463565b825550505050565b600090565b61251d612510565b6125288184846124eb565b505050565b5b8181101561254c57612541600082612515565b60018101905061252e565b5050565b601f8211156125915761256281612431565b61256b84612446565b8101602085101561257a578190505b61258e61258685612446565b83018261252d565b50505b505050565b600082821c905092915050565b60006125b460001984600802612596565b1980831691505092915050565b60006125cd83836125a3565b9150826002028217905092915050565b6125e682611911565b67ffffffffffffffff8111156125ff576125fe611c52565b5b612609825461236e565b612614828285612550565b600060209050601f8311600181146126475760008415612635578287015190505b61263f85826125c1565b8655506126a7565b601f19841661265586612431565b60005b8281101561267d57848901518255600182019150602085019450602081019050612658565b8683101561269a5784890151612696601f8916826125a3565b8355505b6001600288020188555050505b505050505050565b7f4e487b7100000000000000000000000000000000000000000000000000000000600052601160045260246000fd5b60006126e98261189f565b91506126f48361189f565b925082820390508181111561270c5761270b6126af565b5b92915050565b600061271d82611911565b6127278185612293565b935061273781856020860161192d565b61274081611957565b840191505092915050565b600060408201905081810360008301526127658185612712565b905081810360208301526127798184612712565b9050939250505056fea264697066735822122045ef9f296ea4a9a1e97ea7ac601fa4cb25fdfd1a7813499a45ee16f6d96092f464736f6c63430008140033",
  "linkReferences": {},
  "deployedLinkReferences": {}
}